:040000008A11112828
:10000800FE00030EF0000408F1000A08F200831253
:1000180003137F08F3008A11202C8A111328F80192
:10002800F90183135030840069308A11C6278A1178
:10003800A0308400B0308A11C6278A118A11CE27D1
:100048008A11E9008A11CF278A11EA008A11D0277C
:100058008A11EB008A11D1278A11EC008A11D22764
:100068008A11ED008A11D327EE0083018A11892DA8
:100078003A30F4000030F500831203133808F70013
:100088003708F6008A1115268A117508831203139A
:10009800C5007408C4003A30F4000030F5003A088E
:1000A800F7003908F6008A1115268A117508831297
:1000B8000313C7007408C6003A30F4000030F50096
:1000C8003C08F7003B08F6008A1115268A117508C6
:1000D80083120313C9007408C8003A30F4000030D2
:1000E800F5003E08F7003D08F6008A1115268A112A
:1000F800750883120313CB007408CA00440845042A
:10010800031D8828223092280130831203134502E8
:10011800913003194402031C96282830C300430871
:10012800AA00A0281B3083120313C3004308AA00A7
:100138004508AC004408AB003F088400831300085E
:100148008A11E2228A118312031346084704031D09
:10015800AF282230B92801308312031347029130A7
:1001680003194602031CBD282830C3004308AA000F
:10017800C7281B3083120313C3004308AA0047088B
:10018800AC004608AB0040088400831300088A11BD
:10019800E2228A118312031348084904031DD62852
:1001A8002230E028013083120313490291300319E9
:1001B8004802031CE4282830C3004308AA00EE289C
:1001C8001B3083120313C3004308AA004908AC007C
:1001D8004808AB0041088400831300088A11E22212
:1001E8008A11831203134A084B04031D062922307F
:1001F800C3004308AA0042088400831300088A1138
:10020800E22208000130831203134B0291300319D4
:100218004A02031C1A292830C3004308AA004208CE
:100228008400831300088A11E22208001B3083121D
:100238000313C3004308AA004B08AC004A08AB00EC
:1002480042088400831300088A11E22208008312FE
:1002580003132E08B2002F08B3003008B400310889
:10026800B50006300310B20DB30DB40DB50DFF3E49
:10027800031D36293508A3003408A2003308A1005D
:100288003208A0000030B6001230B7007A30B8004B
:100298000030B9002E08BA002F08BB003008BC0097
:1002A8003108BD0006300310BA0DBB0DBC0DBD0DE5
:1002B800FF3E031D5729BA09BB09BC09BD09BA0A83
:1002C8000319BB0A0319BC0A0319BD0A3A08B60781
:1002D8003B0803183B0F71297229B7073C0803181C
:1002E8003C0F77297829B8073D0803183D0AB90754
:1002F8003908A7003808A6003708A5003608A40062
:100308008A1191238A11831203132108F600200809
:10031800F50001307602003003197502031CF72935
:100328002E08B2002F08B3003008B4003108B50019
:1003380004300310B20DB30DB40DB50DFF3E031D0F
:100348009D293508A3003408A2003308A10032080B
:10035800A0000030B6001230B7007A30B800003084
:10036800B9002E08BA002F08BB003008BC003108BD
:10037800BD0004300310BA0DBB0DBC0DBD0DFF3E12
:10038800031DBE29BA09BB09BC09BD09BA0A03196C
:10039800BB0A0319BC0A0319BD0A3A08B6073B0889
:1003A80003183B0FD829D929B7073C0803183C0F75
:1003B800DE29DF29B8073D0803183D0AB9073908BF
:1003C800A7003808A6003708A5003608A4008A1137
:1003D80091238A11831203132108F6002008F500DF
:1003E80083160313181501307602003003197502BD
:1003F800031808007508831603139900181283124E
:100408000313981783160313871707178312031309
:100418001816831603139816080083120313AA00EC
:100428002A088A1121278A1183120313A700270893
:10043800EF002608A7002708EA002508A7002708D4
:10044800E9000230A9000430A800BA30A700A70BC1
:100458002B2AA80B2B2AA90B2B2A00000430831265
:1004680003136F06031D762A03308A11D7258A11D4
:100478000D3083120313A800FB30A700A70B422AF4
:10048800A80B422A472A03308A11D7258A114F30F0
:1004980083120313A700A70B4F2A522A03308A118D
:1004A800D7258A114F3083120313A700A70B5A2AA6
:1004B8005D2A02308A11D7258A114F30831203131F
:1004C800A700A70B652A682A83120313A2012C3000
:1004D8008A11C3268A11213083120313A700A70BA0
:1004E800732AB52A0830831203136F06031DB52A31
:1004F800A20120308A11C3268A110D3083120313FA
:10050800A800FB30A700A70B872AA80B872A8C2AEC
:1005180083120313A20120308A11C3268A114F3097
:1005280083120313A700A70B972A9A2A831203138F
:10053800A20120308A11C3268A114F308312031377
:10054800A700A70BA52AA82A83120313A2013C30EF
:100558008A11C3268A11213083120313A700A70B1F
:10056800B32A83120313A20108308A11C3268A1101
:10057800213083120313A700A70BC02A8312031389
:10058800A20101308A11C3268A110630831203138F
:10059800A8003030A700A70BCF2AA80BCF2A00004D
:1005A80083120313A20106308A11C3268A1121304F
:1005B80083120313A700A70BDF2A08008312031373
:1005C800B5002B30AD002D08B1000130AA07FF306F
:1005D8002A0784008A115D268A11AD002D08B6000D
:1005E800360803198C2B253036060319072B3608D5
:1005F800AD00350884002D08831380000130AD005C
:100608002D08B507E92AB0010E2BC030AD002D0822
:10061800B0041E2B0130AA07FF302A0784008A1174
:100628005D268A11B600003A03198C2B753A031916
:10063800092BE92A3108840083130008B200840AD0
:100648000008B3000230AD002D08B107B601B60AA4
:100658000530360603194D2B3608AD002D07013E2F
:1006680084008A115D268A11AE008A115D268A11DE
:10067800AF002F083302031D432B2E083202031C40
:100688004D2B0130AD002D08B60705303606031D89
:10069800302B3608AD002D08B400FF30AD002D0812
:1006A800B407340A0319E92A0A30A4000030A50067
:1006B8003408AD002D07013E84008A115D268A1199
:1006C800F4008A115D268A11F5003308F700320814
:1006D800F6008A1115268A11750883120313A700DC
:1006E8007408A6008A118F268A118312031324081E
:1006F800303EAE002E08B6003608AD00350884003E
:100708002D08831380000130AD002D08B507512B4B
:100718003508840083138001080083120313A9019C
:10072800A31FA32BA009A109A209A309A00A0319C1
:10073800A10A0319A20A0319A30AA901A90AA71F52
:10074800B42BA409A509A609A709A40A0319A50A8F
:100758000319A60A0319A70A0130F4007408A906A8
:100768000030AD000030AC000030AB000030AA0013
:1007780023082204210420040319092CA801A80A2B
:10078800A31BD42B0130F4000310A00DA10DA20D62
:10079800A30DF40BC82B0130F4007408A807C42B70
:1007A8000130F4000310AA0DAB0DAC0DAD0DF40B28
:1007B800D62B23082702031DEB2B22082602031D34
:1007C800EB2B21082502031DEB2B20082402031C18
:1007D800FC2B2008A4022108031C210FA5022208D3
:1007E800031C220FA6022308031C230FA7022A14A6
:1007F80001300310A30CA20CA10CA00CFF3E031D9A
:10080800FD2B0130A802031DD42B29080319172C2E
:10081800AA09AB09AC09AD09AA0A0319AB0A03195D
:10082800AC0A0319AD0A2D08A3002C08A2002B0856
:10083800A1002A08A00008000B1C832C8B11061E9F
:100848002D2C78087904031D2D2C8E018F0104307E
:100858006E2C061A392C043078067904031D392CBD
:100868000F08D1000E08D0007E2C861E432C780875
:100878007904031D432C8E018F0105306E2C861AD6
:100888004F2C053078067904031D4F2C0F08D30030
:100898000E08D2007E2C061F592C78087904031DF7
:1008A800592C8E018F0106306E2C061B652C0630E4
:1008B80078067904031D652C0F08D5000E08D400AE
:1008C8007E2C861F732C78087904031D732C8E01E7
:1008D8008F010730F8000030F9001014812C861BB6
:1008E800812C073078067904031D812C0F08D70066
:1008F8000E08D600F801F90110100B108B157308BB
:10090800FF0072088A0071088400700E8300FE0ED2
:100918007E0E0900F500CC2C741C962C8312031350
:10092800071408008312031307100800741CA02C76
:100938008312031387140800831203138710080017
:10094800741CAA2C831203130715080083120313BF
:1009580007110800741CB42C8312031387150800B0
:100968008312031387110800741CBE2C831203130F
:10097800071608008312031307120800741CC82CFA
:1009880083120313871608008312031387120800C3
:100998007508043A0319902C013A03199A2C033A62
:1009A8000319A42C013A0319AE2C0F3A0319C22CCF
:1009B800013A0319B82C033A0319E32CE32C080075
:1009C80083120313AB00A50100308A1165278A1131
:1009D8000F3083120313A5008030A6008A11442724
:1009E8008A1183120313A5010C308A1165278A1115
:1009F800831203132B08A5000030A6008A11442790
:100A08008A1183120313A501A50A00308A116527EC
:100A18008A11831203132808A5000030A6008A1142
:100A280044278A1183120313A501A50A06308A11E7
:100A380065278A11831203132908A5000030A60030
:100A48008A1144278A1183120313A501A50A0C30C1
:100A58008A1165278A11831203132A08A50000301A
:100A6800A6008A11442708008312031306140630CF
:100A7800F400F40B3D2D000083120313061082309E
:100A8800F500DD30F400F40B472DF50B472D4C2D08
:100A98008312031386140630F400F40B512D000062
:100AA8008312031386108230F500DD30F400F40B56
:100AB8005B2DF50B5B2D602D831203130615063095
:100AC800F400F40B652D0000831203130611823025
:100AD800F500DD30F400F40B6F2DF50B6F2D742D40
:100AE8008312031386150630F400F40B792D0000E9
:100AF8008312031386118230F500DD30F400F40B05
:100B0800832DF50B832D882D08008A11F4268A1170
:100B1800003083120313B1000030B0002530AF005D
:100B28008030AE008A112B218A118A1138258A114A
:100B3800831203135108B8005008B7005308BA00CD
:100B48005208B9005508BC005408BB005708BE003D
:100B58005608BD006B30CC004C08BF006C30CD008F
:100B68004D08C0006D30CE004E08C1006E30CF0079
:100B78004F08C2008A113C208A1161308312031386
:100B8800CC004C08A800A030CD004D08A900A83022
:100B9800CE004E08AA0059308A11E4248A118A111D
:100BA80086278A11992D83120313A0000430F600BA
:100BB8007608A100083021020318052E0130F6003E
:100BC8002108FC3E013EEA2D0310F60DFF3E031DF1
:100BD800E82D760820050319F32D0130F42D003097
:100BE800F7007708F40021088A118E248A11013051
:100BF800F600760883120313A10708302102031CAC
:100C0800E22DF401F40A08308A118E248A11063084
:100C1800F600F60B0D2E0000F40108308A118E2420
:100C2800080083120313A201A301740875040319B1
:100C38004E2EA101A10AF51B2D2E01300310F40D33
:100C4800F50DFF3E031D222E0130A0002008A1074C
:100C58001F2E01300310A20DA30DFF3E031D2E2EE3
:100C680075087702031D3A2E74087602031C432E7A
:100C78007408F6027508031CF703F7022214013002
:100C88000310F50CF40CFF3E031D442E0130A102A5
:100C9800031D2D2E2308F5002208F4000800FF1B71
:100CA8005D2E83137F1883170008840A0319FF0A2F
:100CB800080006308A000408840A820700340134D8
:100CC80000340A34003464340034E8340334103413
:100CD800273400344034143454344434693473347D
:100CE800743461346E3463346934613473343A343F
:100CF8000034253475342034203420340034003452
:100D08004E344F3450344534003400344F34553465
:100D180054340034003483120313240825040319BF
:100D2800BE2EA901A90AA51BA52E01300310A40DEA
:100D3800A50DFF3E031D9A2E0130A8002808A9071B
:100D4800972E25082702031DAB2E24082602031C14
:100D5800B32E2408A6022508031CA703A702013006
:100D68000310A50CA40CFF3E031DB42E0130A902EC
:100D7800031DA52E2708A5002608A4000800831235
:100D88000313A40022080319CC2EF401F40ACD2E73
:100D9800F40109308A118E248A11F4010A308A116B
:100DA8008E248A110430831203136F06031DEE2E5E
:100DB8002408A30004300310A30CFF3E031DDF2EFC
:100DC80023088A11D7258A118312031324088A114C
:100DD800D72508008312031324088A11D427080092
:100DE8007530831603138F00F030860083120313C7
:100DF8008601831603178901831203138E018F015D
:100E08001030900008308B00F030831603139600E2
:100E18008B17103083120313AB002B08A500023088
:100E2800AC002C08A60000308A1111228A118A1100
:100E3800A3278A118A11B627080083120313A10178
:100E480083160313871207120710871007118711DB
:100E580083120313A1010B3021020318422FF4015E
:100E680021088A118E248A110130F600760883122F
:100E78000313A1070B302102031C332F0430080091
:100E8800831203132608FF00250884008A115326BD
:100E98008A11003A0319080083120313A201A20A57
:100EA8002608FF00250884008A1153268A118A1112
:100EB800C3268A11013083120313A5070318A60A53
:100EC800442F83120313A7006A082502031C712FFD
:100ED8006A08FF3EA6002608A50069082702031C29
:100EE8007A2F6908FF3EA6002608A700A201250858
:100EF8000B3E84008A115D268A11270780388A11E3
:100F0800C32608008316031386010D30F500FB3055
:100F1800F400F40B8D2FF50B8D2F922F83120313F2
:100F280086010D30F500FB30F400F40B992FF50B1A
:100F3800992F9E2FF0308316031386000800831222
:100F48000313A20101308A11C3268A1106308312C5
:100F58000313A6003030A500A50BB02FA60BB02FA9
:100F680000000800831203135815A2015808083816
:100F78008A11C3268A11213083120313A500A50BF9
:100F8800C32F080064008001840A04060319003492
:100F98000406C72F1034023459346134A034A834FD
:020FA80008003F
:04400E00F5EFFFFECD
:00000001FF
