:040000008A11112828
:10000800FE00030EF0000408F1000A08F200831253
:1000180003137F08F3008A117F2A8A111328F80135
:10002800F90183132030840047308A11CB258A11C7
:10003800A0308400AA308A11CB258A118A11D325D1
:100048008A11E6008A11D4258A11E7008A11D5257C
:100058008A11E8008A11D6258A11E9008A11D72564
:100068008A11EA008A11D825EB0083018A11D32965
:1000780083120313D10051088A1113258A118312A0
:100088000313CE004E08EC004D08CE004E08E700E2
:100098004C08CE004E08E6000230D0000430CF00F5
:1000A800BA30CE00CE0B5628CF0B5628D00B562888
:1000B80000000430831203136C06031DA1280330CB
:1000C8008A11D3238A110D3083120313CF00FB301A
:1000D800CE00CE0B6D28CF0B6D28722803308A1105
:1000E800D3238A114F3083120313CE00CE0B7A2804
:1000F8007D2803308A11D3238A114F3083120313CA
:10010800CE00CE0B8528882802308A11D3238A1185
:100118004F3083120313CE00CE0B902893288312FE
:100128000313C9012C308A11B4248A112130831297
:100138000313CE00CE0B9E28E02808308312031349
:100148006C06031DE028C90120308A11B4248A11E5
:100158000D3083120313CF00FB30CE00CE0BB22834
:10016800CF0BB228B72883120313C90120308A1194
:10017800B4248A114F3083120313CE00CE0BC22849
:10018800C52883120313C90120308A11B4248A11A7
:100198004F3083120313CE00CE0BD028D3288312FE
:1001A8000313C9013C308A11B4248A112130831207
:1001B8000313CE00CE0BDE2883120313C9010830C7
:1001C8008A11B4248A11213083120313CE00CE0B76
:1001D800EB2883120313C90101308A11B4248A1150
:1001E800063083120313CF003030CE00CE0BFA282E
:1001F800CF0BFA28000083120313C90106308A11B5
:10020800B4248A11213083120313CE00CE0B0A299D
:10021800080083120313DC005230D4005408D700BE
:100228000130D107FF30510784008A118D248A11CB
:10023800D4005408DD005D080319CE2925305D0679
:10024800031932295D08D4005C088400540883131C
:1002580080000130D4005408DC071429D80101308B
:10026800D107FF30510784008A118D248A11DD00DF
:10027800003A0319CE29643A031946290D3A03199D
:10028800462914295708840083130008DA00840AD1
:100298000008DB000230D4005408D707DB1F5D29B3
:1002A8000330D4005408D804DA09DB09DA0A031940
:1002B800DB0ADD01DD0A05305D06031980295D08CA
:1002C800D4005407013E84008A118D248A11D50078
:1002D8008A118D248A11D60056085B02031D7629DF
:1002E80055085A02031C80290130D4005408DD0740
:1002F80005305D06031D63295808033903198F2942
:100308002D30D4005C088400540883138000013029
:10031800D4005408DC075D08D4005408D900FF3025
:10032800D4005408D907590A031914290A30CB00F4
:100338000030CC005908D4005407013E84008A11CB
:100348008D248A11F4008A118D248A11F5005B0826
:10035800F7005A08F6008A1111248A1175088312C9
:100368000313CE007408CD008A114F248A1183121A
:1003780003134B08303ED5005508DD005D08D40056
:100388005C0884005408831380000130D4005408AA
:10039800DC0793295C0884008313800108008A1114
:1003A80090238A118A11BF258A116830831203139A
:1003B800E500E430E400E40BDF29E50BDF29000069
:1003C800831203132108DF002008DE006830E400F0
:1003D8006408E0000130E1000030E2008A11E52401
:1003E8008A118A11B3258A11683083120313E50034
:1003F800E430E400E40BFE29E50BFE29000083123B
:1004080003132308DF002208DE006930E4006408D3
:10041800E0000130E1000030E2008A11E5248A1191
:100428008A11A7258A11683083120313E500E43086
:10043800E400E40B1D2AE50B1D2A000083120313B8
:100448002508DF002408DE006A30E4006408E000C4
:100458000130E1000030E2008A11E5248A118A1196
:100468009B258A11683083120313E500E430E40009
:10047800E40B3C2AE50B3C2A0000831203132708EF
:10048800DF002608DE006B30E4006408E00001307D
:10049800E1000030E2008A11E5248A118312031377
:1004A800CC01CC0A00308A1157258A1129308312D1
:1004B8000313CC000030CD008A1136258A11333061
:1004C80083120313CC000030CD008A1136258A111F
:1004D8003D3083120313CC000030CD008A1136253D
:1004E8008A11A03083120313CC000030CD008A118A
:1004F80036258A11D6290B1CD42A8B11061E862A6A
:100508000130BD2A061A942A78037904031D942A17
:10051800F801F90110100F08A1000E08A000D22A56
:10052800861E982A0230BD2A861AA72A0230780623
:100538007904031DA72AF801F90110100F08A30078
:100548000E08A200D22A061FAB2A0330BD2A061BBA
:10055800BA2A033078067904031DBA2AF801F9018A
:1005680010100F08A5000E08A400D22A861FC42A5E
:100578000430F8000030F9008E018F011014D22ADF
:10058800861BD22A043078067904031DD22AF80182
:10059800F90110100F08A7000E08A6000B108B1504
:1005A8007308FF0072088A0071088400700E8300C7
:1005B800FE0E7E0E090083120313C901F51FEB2AF4
:1005C800F409F509F40A0319F50AC901C90AF71F5C
:1005D800F62AF609F709F60A0319F70A0130C700DF
:1005E8004708C906CA01CB017408750403192D2BE5
:1005F800C801C80AF51B0C2B01300310F40DF50DCA
:10060800FF3E031D012B0130C7004708C807FE2A1B
:1006180001300310CA0DCB0DFF3E031D0D2B7508CD
:100628007702031D192B74087602031C222B740809
:10063800F6027508031CF703F7024A140130031089
:10064800F50CF40CFF3E031D232B0130C802031DDB
:100658000C2B49080319352BCA09CB09CA0A0319F7
:10066800CB0A4B08F5004A08F4000800F500782B7F
:10067800741C422B831203130716080083120313FA
:1006880007120800741C4C2B8312031387160800EA
:100698008312031387120800741C562B831203134A
:1006A800071708008312031307130800741C602B34
:1006B8008312031387170800831203138713080094
:1006C800741C6A2B83120313871508008312031303
:1006D80087110800741C742B831203130715080074
:1006E80083120313071108007508043A03193C2BF9
:1006F800013A0319462B033A0319502B013A0319FF
:100708005A2B0F3A03196E2B013A0319642B033A3B
:1007180003198F2B8F2B08007530831603138F0056
:10072800F0308600831203138601831603178901AC
:1007380003308316031387008312031387011030D5
:10074800900008308B00F0308316031396000130B8
:100758008C00831203138C018B171030D2005208BF
:10076800CC000230D3005308CD0000308A113C2061
:100778008A118A1178258A118A118B258A11831288
:100788000313CC0100308A1157258A110F308312C8
:100798000313CC008030CD008A113625080083125F
:1007A8000313C7000430F6007608C8000830480272
:1007B8000318012C0130F6004808FC3E013EE62BE8
:1007C8000310F60DFF3E031DE42B760847050319B9
:1007D800EF2B0130F02B0030F7007708F4004808C1
:1007E8008A113A238A110130F6007608831203131E
:1007F800C80708304802031CDE2BF401F40A08304D
:100808008A113A238A110630F600F60B092C0000EB
:10081800F40108308A113A23080083120313C9012E
:10082800CA017408750403194A2CC801C80AF51BC3
:10083800292C01300310F40DF50DFF3E031D1E2C6D
:100848000130C7004708C8071B2C01300310C90D29
:10085800CA0DFF3E031D2A2C75087702031D362C8E
:1008680074087602031C3F2C7408F6027508031CF2
:10087800F703F702491401300310F50CF40CFF3E9E
:10088800031D402C0130C802031D292C4A08F5001D
:100898004908F4000800831203134B084C04031999
:1008A8007E2CD001D00ACC1B652C01300310CB0D57
:1008B800CC0DFF3E031D5A2C0130CF004F08D00746
:1008C800572C4C084E02031D6B2C4B084D02031C81
:1008D800732C4B08CD024C08031CCE03CE0201300A
:1008E8000310CC0CCB0CFF3E031D742C0130D0023E
:1008F800031D652C4E08CC004D08CB000800FF1BDB
:100908008D2C83137F1883170008840A0319FF0AA4
:10091800080004308A000408840A8207003401347D
:1009280000340A34003464340034E83403341034B6
:100938002734003440341434543444346934733420
:10094800743461346E3463346934613473343A34E2
:100958002034003425346434203463346D34003456
:1009680083120313CB0049080319BD2CF401F40AC0
:10097800BE2CF40109308A113A238A11F4010A3095
:100988008A113A238A110430831203136C06031D5B
:10099800DF2C4B08CA0004300310CA0CFF3E031DAD
:1009A800D02C4A088A11D3238A11831203134B08C7
:1009B8008A11D3230800831203134B088A11D925FF
:1009C80008003A30F4000030F500831203135F0882
:1009D800F7005E08F6008A11DF228A117508831273
:1009E8000313DF007408DE001C30E3006308D10045
:1009F8005F08D3005E08D2006008840083130008F3
:100A08008A110D21831203136108FF3E6007E3007A
:100A1800630884008313000884008001080083129F
:100A28000313C801831603130711871107128712CE
:100A38000713871383120313C8010B3048020318E6
:100A4800342DF40148088A113A238A110130F6003E
:100A5800760883120313C8070B304802031C252DA0
:100A680004300800831203134D08FF004C0884006B
:100A78008A1183248A11003A031908008312031388
:100A8800C901C90A4D08FF004C0884008A11832453
:100A98008A118A11B4248A11013083120313CC07F6
:100AA8000318CD0A362D83120313CE0067084C02B3
:100AB800031C632D6708FF3ECD004D08CC00660877
:100AC8004E02031C6C2D6608FF3ECD004D08CE007B
:100AD800C9014C080B3E84008A118D248A114E07E7
:100AE80080388A11B424080083120313C901013025
:100AF8008A11B4248A11063083120313CD003030D2
:100B0800CC00CC0B852DCD0B852D00000800831261
:100B180003132815C901280808388A11B4248A1132
:100B2800213083120313CC00CC0B982D08008312BC
:100B3800031386150630F400F40BA02D0000831271
:100B48000313861108008312031306150630F400F8
:100B5800F40BAC2D00008312031306110800831256
:100B6800031386140630F400F40BB82D000083122A
:100B78000313861008008312031306140630F400CA
:100B8800F40BC42D00008312031306100800640040
:100B98008001840A0406031900340406CC2D10349D
:0C0BA8000234293433343D34A0340800FA
:04400E00F5EFFFFECD
:00000001FF
