:040000008A11112828
:10000800FE00030EF0000408F1000A08F200831253
:1000180003137F08F3008A118C2B8A111328F60129
:10002800F701F801F9018313A0308400C8308A1160
:1000380045268A11831603138A114D268A11C80092
:100048008A114E268A11C9008A114F268A11CA00C0
:100058008A1150268A11CB00831203138A11512664
:100068008A11EE008A115226EF0083018A11142C9E
:100078003A3083120313A0000030A1003E08A30009
:100088003D08A2008A114A258A1183120313210808
:10009800CB002008CA003A30A0000030A100400878
:1000A800A3003F08A2008A114A258A11831203136C
:1000B8002108CD002008CC003A30A0000030A10073
:1000C8004208A3004108A2008A114A258A11831216
:1000D80003132108CF002008CE003A30A0000030DA
:1000E800A1004408A3004308A2008A114A258A11E6
:1000F800831203132108D1002008D0004A084B04BA
:10010800031D8828303092280130831203134B02D4
:10011800913003194A02031C96283630C900490851
:10012800AC00A028293083120313C9004908AC0089
:100138004B08AE004A08AD00450884008313000848
:100148008A1118228A11831203134C084D04031DC7
:10015800AF283030B9280130831203134D02913093
:1001680003194C02031CBD283630C9004908AC00ED
:10017800C728293083120313C9004908AC004D0869
:10018800AE004C08AD0046088400831300088A11AD
:1001980018228A11831203134E084F04031DD62810
:1001A8003030E0280130831203134F0291300319D5
:1001B8004E02031CE4283630C9004908AC00EE287A
:1001C800293083120313C9004908AC004F08AE0058
:1001D8004E08AD0047088400831300088A111822CE
:1001E8008A118312031350085104031D0629303065
:1001F800C9004908AC0048088400831300088A1124
:100208001822080001308312031351029130031998
:100218005002031C1A293630C9004908AC004808A6
:100228008400831300088A111822080029308312D9
:100238000313C9004908AC005108AE005008AD00CE
:1002480048088400831300088A11182208008312C2
:1002580003132E08B2002F08B3003008B400310889
:10026800B50006300310B20DB30DB40DB50DFF3E49
:10027800031D36293508A3003408A2003308A1005D
:100288003208A0000030B6001230B7007A30B8004B
:100298000030B9002E08BA002F08BB003008BC0097
:1002A8003108BD0006300310BA0DBB0DBC0DBD0DE5
:1002B800FF3E031D5729BA09BB09BC09BD09BA0A83
:1002C8000319BB0A0319BC0A0319BD0A3A08B60781
:1002D8003B0803183B0F71297229B7073C0803181C
:1002E8003C0F77297829B8073D0803183D0AB90754
:1002F8003908A7003808A6003708A5003608A40062
:100308008A11FD228A11831203132108BF002008D5
:10031800BE0001303F02003003193E02031CF729DA
:100328002E08B2002F08B3003008B4003108B50019
:1003380004300310B20DB30DB40DB50DFF3E031D0F
:100348009D293508A3003408A2003308A10032080B
:10035800A0000030B6001230B7007A30B800003084
:10036800B9002E08BA002F08BB003008BC003108BD
:10037800BD0004300310BA0DBB0DBC0DBD0DFF3E12
:10038800031DBE29BA09BB09BC09BD09BA0A03196C
:10039800BB0A0319BC0A0319BD0A3A08B6073B0889
:1003A80003183B0FD829D929B7073C0803183C0F75
:1003B800DE29DF29B8073D0803183D0AB9073908BF
:1003C800A7003808A6003708A5003608A4008A1137
:1003D800FD228A11831203132108BF002008BE00E2
:1003E800831603131815013083123F0200300319D6
:1003F8003E0203180800831603131811831203130F
:100408003E088316031399001812831203139817D2
:100418008316031387170713181383120313181669
:10042800831603139816080083120313BC002D309B
:10043800B1003108B8000130AC07FF302C07840048
:100448008A110A258A11B1003108BB003B0803193B
:10045800F82A25303B0603193D2A3B08B1003C0821
:1004680084003108831380000130B1003108BC07D3
:100478001F2AB401772A3808840083130008B900BA
:100488000030BA000130B1003108B80739083A0421
:10049800031D522A2230B9008030BA003A08FF0002
:1004A800390884008A1100258A11003A03191F2A85
:1004B8003A08FF00390884008A1100258A11B10022
:1004C8003C0884003108831380000130B907031801
:1004D800BA0A0130B1003108BC07522AC030B10055
:1004E8003108B4048A2A0130AC07FF302C07840095
:1004F8008A110A258A11BB00003A0319F82A733AAF
:1005080003193F2A063A0319722A1F2A3808840059
:1005180083130008B500840A0008B6000230B10051
:100528003108B807BB01BB0A05303B060319B92AD5
:100538003B08B1003107013E84008A110A258A115F
:10054800B2008A110A258A11B30033083602031D46
:10055800AF2A32083502031CB92A0130B10031082C
:10056800BB0705303B06031D9C2A3B08B100310838
:10057800B700FF30B1003108B707370A03191F2A3F
:100588000A30A7000030A8003708B1003107013E43
:1005980084008A110A258A11A0008A110A258A1165
:1005A800A1003608A3003508A2008A114A258A113D
:1005B800831203132108AA002008A9008A1188259C
:1005C8008A11831203132708303EB2003208BB0099
:1005D8003B08B1003C0884003108831380000130D7
:1005E800B1003108BC07BD2A3C0884008313800190
:1005F800080083120313A901A31F0F2BA009A10947
:10060800A209A309A00A0319A10A0319A20A031936
:10061800A30AA901A90AA71F202BA409A509A609AD
:10062800A709A40A0319A50A0319A60A0319A70A00
:100638000130F4007408A9060030AD000030AC00A9
:100648000030AB000030AA00230822042104200453
:100658000319752BA801A80AA31B402B0130F4002D
:100668000310A00DA10DA20DA30DF40B342B013026
:10067800F4007408A807302B0130F4000310AA0D09
:10068800AB0DAC0DAD0DF40B422B23082702031D57
:10069800572B22082602031D572B21082502031D6C
:1006A800572B20082402031C682B2008A4022108C9
:1006B800031C210FA5022208031C220FA6022308EF
:1006C800031C230FA7022A1401300310A30CA20C49
:1006D800A10CA00CFF3E031D692B0130A802031DCD
:1006E800402B29080319832BAA09AB09AC09AD09CA
:1006F800AA0A0319AB0A0319AC0A0319AD0A2D0893
:10070800A3002C08A2002B08A1002A08A0000800BA
:100718000B1C092C8B11061E992B76087704031DD8
:10072800992B8E018F010430EC2B061AAB2B043069
:1007380076067704031DAB2B0F0883160313A1005D
:10074800831203130E0883160313A000022C861EBF
:10075800B52B76087704031DB52B8E018F01053064
:10076800EC2B861AC72B053076067704031DC72B9A
:100778000F0883160313A300831203130E088316AE
:100788000313A200022C061FD12B76087704031D41
:10079800D12B8E018F010630EC2B061BE32B063084
:1007A80076067704031DE32B0F0883160313A500B1
:1007B800831203130E0883160313A400022C861F4A
:1007C800F12B76087704031DF12B8E018F0107307A
:1007D800F6000030F7001014072C861B072C073092
:1007E80076067704031D072C0F0883160313A7004A
:1007F800831203130E0883160313A600F601F701EC
:100808008312031310100B108B157308FF00720866
:100818008A0071088400700E8300FE0E7E0E0900A7
:100828008A1108268A11003083120313B1000030A0
:10083800B0002530AF008030AE008A112B218A111C
:100848008A119A248A118316031321088312031329
:10085800BE0083160313200883120313BD008316FA
:100868000313230883120313C000831603132208FB
:1008780083120313BF00831603132508831203137F
:10088800C20083160313240883120313C1008316BE
:100898000313270883120313C400831603132608BF
:1008A80083120313C300C83083160313CC004C080B
:1008B80083120313C500C93083160313CD004D08F6
:1008C80083120313C600CA3083160313CE004E08E2
:1008D80083120313C700CB3083160313CF004F08CE
:1008E80083120313C8008A113C208A11B030831682
:1008F8000313CC004C0883120313BD00B8308316D1
:100908000313CD004D0883120313BE00C0308316B5
:100918000313CE004E0883120313BF00A8308A11B8
:10092800BC258A118A1122268A11242C103083169C
:10093800031386008312031306140630F400F40B25
:10094800A32C00008312031306108230F500DD305B
:10095800F400F40BAD2CF50BAD2CB22C2030831623
:10096800031386008312031386140630F400F40B75
:10097800BB2C00008312031386108230F500DD3093
:10098800F400F40BC52CF50BC52CCA2C403083168B
:10099800031386008312031306150630F400F40BC4
:1009A800D32C00008312031306118230F500DD30CA
:1009B800F400F40BDD2CF50BDD2CE22C80308316D3
:1009C800031386008312031386150630F400F40B14
:1009D800EB2C00008312031386118230F500DD3002
:0E09E800F400F40BF52CF50BF52CFA2C08009E
:100A0000FF1B0A2D83137F1883170008840A03191C
:100A1000FF0A080005308A000408840A82070034AF
:100A2000013400340A34003464340034E8340334CC
:100A3000103427340034403414345434253473349F
:100A40002C342034253473342C342034253473343E
:100A50002C342034253473342E340A340D340034CD
:100A6000003428346E3475346C346C3429340034DA
:100A700025347534203420342034003400344E348E
:100A80004F3450344534003400344F3455345434EA
:100A90000034003483120313A501A60120082104A9
:100AA0000319832DA401A40AA11B622D0130031098
:100AB000A00DA10DFF3E031D572D0130F400740859
:100AC000A407542D01300310A50DA60DFF3E031DF4
:100AD000632D21082302031D6F2D20082202031C11
:100AE000782D2008A2022108031CA303A3022514C9
:100AF00001300310A10CA00CFF3E031D792D013025
:100B0000A402031D622D2608A1002508A0000800EC
:100B100083120313270828040319B72DAB01AB0A6E
:100B2000A81B9E2D01300310A70DA80DFF3E031D2D
:100B3000932D0130F5007508AB07902D28082A0287
:100B4000031DA42D27082902031CAC2D2708A90288
:100B50002808031CAA03AA0201300310A80CA70C42
:100B6000FF3E031DAD2D0130AB02031D9E2D2A0853
:100B7000A8002908A700080083120313ED000F3016
:100B8000C0004008AC006D08C1004108AD003D0840
:100B9000C2004208AE003E08C3004308AF003F0851
:100BA000C4004408B00045308A1118228A1145302B
:100BB0008A11E7258A11823083120313C100DD30C8
:100BC000C000C00BE12DC10BE12DE62D0800831202
:100BD0000313A000A101A20121082007F500750858
:100BE0008400831300080319080021082007F5007A
:100BF00075088400831300088A113B268A1101308E
:100C000083120313A1070318A20A0030A207EC2DD8
:100C10007530831603138F00F030860083120313A0
:100C20008601831603178901831203138E018F0136
:100C30001030900008308B00F030831603139600BC
:100C40008B1708008316031386010D30F500FB3067
:100C5000F400F40B292EF50B292E2E2E83120313EC
:100C600086010D30F500FB30F400F40B352EF50B4A
:100C7000352E3A2E0800F40083160313981C3C2EE0
:100C80007408831203139900080064008001840A29
:100C90000406031900340406462EA834B034B834D0
:060CA000C03410340234E0
:04400E00F5EFFFFECD
:00000001FF
