:040000008A11112828
:10000800FE00030EFA000408FB000A08FC00831235
:1000180003137F08FD008A11542B8A1113288313B8
:100028002030840051308A11AC238A11A03084001A
:10003800A8308A11AC2383018A11222B831203135F
:10004800E8003A30D1000030D200680884008313F9
:100058000008D300840A0008D4008A11C7228A1134
:100068008312031368088400510883138000840AEC
:10007800520880003A30D1000030D2006108840074
:100088000008D300840A0008D4008A11C7228A1104
:100098008312031361088400510883138000840AC3
:1000A800520880003A30D1000030D2006208840043
:1000B8000008D300840A0008D4008A11C7228A11D4
:1000C8008312031362088400510883138000840A92
:1000D800520880003A30D1000030D2006308840012
:1000E8000008D300840A0008D4008A11C7228A11A4
:1000F8008312031363088400510883138000840A61
:100108005208800068088A1102218A118312031399
:1001180061088A1102218A118312031362088A1165
:1001280002218A118312031363088A1102218A119A
:100138008312031368080A3E840083130008E5004D
:10014800840A0008E6006608E70064088400670877
:10015800800068080A3E84000008E500640A8400FC
:100168006508800061080A3E84000008E500840AEA
:100178000008E6006608E7006408023E8400670895
:10018800800061080A3E84000008E5006408033E18
:1001980084006508800062080A3E84000008E500C3
:1001A800840A0008E6006608E7006408043E840044
:1001B8006708800062080A3E84000008E5006408B9
:1001C800053E84006508800063080A3E8400000834
:1001D800E500840A0008E6006608E7006408063EB1
:1001E80084006708800063080A3E84000008E50070
:1001F8006408073E84006508800008008312031322
:10020800E000DE01DF0105305F02031864295F08A2
:10021800DA005A076007DB005B08840083130008D4
:10022800DC00840A0008DD005D08803AFF008130A8
:100238007F02031D212991305C02031830298312A3
:1002480003135F08DA005A076007DB005B088400C5
:10025800840A8313801F3E29831203135F08DA0080
:100268005A076007DB005B08840083138001840A57
:1002780080015C295F08DA005A076007DB005B0829
:1002880084000008DC00840A0008DD0060080A3EDB
:1002980084005C088007840F00080318000AFF0028
:1002A8005D087F07800084030130DA005A08DE0702
:1002B8000130DA005A08DF0705305F02031C0B29FA
:1002C8005E08DA00DB015A08D1005B08D20060083A
:1002D8000A3E840083130008D300840A0008D4006F
:1002E8008A11C7228312031360080A3E840051084A
:1002F80083138000840A52088000080083120313C5
:10030800DA00DB0104305B02031808005B08D40044
:1003180054075A07D5005508840083130008D600EF
:10032800840A0008D7005B08D8005807023E5A071D
:10033800D9005908840056088000840A57088000AC
:100348005B08D40054075107D500550884000008FD
:10035800D600840A0008D7005B08D8005807023E78
:100368005107D9005908840056088000840A5708A4
:1003780080005B08D40054075207D5005508840054
:100388000008D600840A0008D7005B08D800580780
:10039800023E5207D9005908840056088000840A92
:1003A800570880005B08D40054075307D500550848
:1003B80084000008D600840A0008D7005B08D8002B
:1003C8005807023E5307D900590884005608800090
:1003D800840A570880000130D4005408DB078629B6
:1003E800F5008B1183120313061E042A7308840078
:1003F80083130008031D042A8E018F010430482A44
:10040800061A0F2A73088400043083130006031D9C
:100418000F2A7508592A861E1B2A7308840083131D
:100428000008031D1B2A8E018F010530482A861AF1
:10043800262A73088400053083130006031D262A24
:100448007008592A061F322A73088400831300088B
:10045800031D322A8E018F010630482A061B3D2AC9
:1004680073088400063083130006031D3D2A7108B3
:10047800592A861F4F2A7308840083130008031D16
:100488004F2A8E018F010730F40073088400740826
:1004980080001014632A861B632A730884000730BF
:1004A80083130006031D632A720884000E08800067
:1004B800840A0F08800073088400800110100B1054
:1004C8008B1508001030831603138600831203135C
:1004D80006140630D100D10B6F2A000083120313D3
:1004E80006108230D200DD30D100D10B792AD20B30
:1004F800792A7E2A20308316031386008312031379
:1005080086140630D100D10B872A0000831203130A
:1005180086108230D200DD30D100D10B912AD20B67
:10052800912A962A403083160313860083120313F8
:1005380006150630D100D10B9F2A00008312031341
:1005480006118230D200DD30D100D10BA92AD20B9E
:10055800A92AAE2A80308316031386008312031358
:1005680086150630D100D10BB72A00008312031379
:1005780086118230D200DD30D100D10BC12AD20BD6
:10058800C12AC62A080083120313D701D21FD32A0F
:10059800D109D209D10A0319D20AD701D70AD41F1F
:1005A800DE2AD309D409D30A0319D40A0130D500A5
:1005B8005508D706D801D901510852040319152B3B
:1005C800D601D60AD21BF42A01300310D10DD20D60
:1005D800FF3E031DE92A0130D5005508D607E62A53
:1005E80001300310D80DD90DFF3E031DF52A52081E
:1005F8005402031D012B51085302031C0A2B5108F6
:10060800D3025208031CD403D40258140130031037
:10061800D20CD10CFF3E031D0B2B0130D602031D5B
:10062800F42A570803191D2BD809D909D80A031920
:10063800D90A5908D2005808D10008008A11922313
:100648008A118A1166228A112C3083120313E90059
:100658006908E1003830EA006A08E2004430EB003B
:100668006B08E300A030EC006C08E40020308A112D
:1006780022208A112C3083120313E9006908D10063
:100688003830EA006A08D2004430EB006B08D30027
:1006980020308A1182218A118A1177238A11252B09
:1006A8000B1C6A2B2C30F6007608F0003830F70067
:1006B8007708F1004430F8007808F2005030F9006B
:1006C8007908F30020308A11F4218A117D088312F9
:1006D8000313FF007C088A007B0884007A0E8300DD
:1006E800FE0E7E0E09008316031386010D30831259
:1006F8000313D200FB30D100D10B802BD20B802BFF
:10070800852B8312031386010D30D200FB30D100F4
:10071800D10B8C2BD20B8C2B912B080075308316A8
:1007280003138F00F03086008312031386018316AB
:1007380003178901831203138E018F011030900073
:1007480008308B00F0308316031396008B170800CF
:1007580064008001840A0406031900340406AD2BE2
:04400E00F5EFFFFECD
:00000001FF
