:040000008A11112828
:10000800FE00030EFA000408FB000A08FC00831235
:1000180003137F08FD008A110E2E8A1113288313FB
:100028004B30840070308A11AE268A11A0308400CB
:10003800BC308A11AE2683018A11582D831203130E
:100048002F08B3003008B4003108B5003208B600F4
:1000580006300310B30DB40DB50DB60DFF3E031DEC
:100068002D283608A3003508A2003408A10033085B
:10007800A0000030B7001230B8007A30B900003064
:10008800BA002F08BB003008BC003108BD00320898
:10009800BE0006300310BB0DBC0DBD0DBE0DFF3EEE
:1000A800031D4E28BB09BC09BD09BE09BB0A0319BB
:1000B800BC0A0319BD0A0319BE0A3B08B7073C0866
:1000C80003183C0F68286928B8073D0803183D0F36
:1000D8006E286F28B9073E0803183E0ABA073A087F
:1000E800A7003908A6003808A5003708A4008A1117
:1000F80006238A11831203132108C0002008BF00B9
:1001080001304002003003193F02031CEE282F087B
:10011800B3003008B4003108B5003208B600043026
:100128000310B30DB40DB50DB60DFF3E031D942895
:100138003608A3003508A2003408A1003308A0003F
:100148000030B7001230B8007A30B9000030BA0079
:100158002F08BB003008BC003108BD003208BE00C3
:1001680004300310BB0DBC0DBD0DBE0DFF3E031DBD
:10017800B528BB09BC09BD09BE09BB0A0319BC0ADD
:100188000319BD0A0319BE0A3B08B7073C08031840
:100198003C0FCF28D028B8073D0803183D0FD528B5
:1001A800D628B9073E0803183E0ABA073A08A70036
:1001B8003908A6003808A5003708A4008A110623C4
:1001C8008A11831203132108C0002008BF00831678
:1001D80003131815013083124002003003193F023F
:1001E80003180800831603131811831203133F081A
:1001F8008316031399001812831203139817831692
:10020800031387170713181383120313181683167B
:1002180003139816080083120313BF002F30B7008A
:100228003708BB000130AE07FF302E0784008A1163
:1002380052268A11B7003708C00040080319B929A7
:1002480025304006031934294008B7003F088400C8
:100258003708831380000130B7003708BF07162915
:10026800BA013B29C030B7003708BA044B2901301E
:10027800AE07FF302E0784008A1152268A11C0006B
:10028800003A0319B929753A0319362916293B0882
:10029800840083130008BC00840A0008BD000230F3
:1002A800B7003708BB07C001C00A0530400603196C
:1002B8007A294008B7003707013E84008A11522680
:1002C8008A11B8008A1152268A11B90039083D02EC
:1002D800031D702938083C02031C7A290130B70035
:1002E8003708C00705304006031D5D294008B700E0
:1002F8003708BE00FF30B7003708BE073E0A0319AB
:1003080016290A30A8000030A9003E08B7003707B0
:10031800013E84008A1152268A11A0008A115226B1
:100328008A11A1003D08A3003C08A2008A119C255F
:100338008A11831203132108AB002008AA008A112E
:10034800DA258A11831203132808303EB8003808CA
:10035800C0004008B7003F088400370883138000B6
:100368000130B7003708BF077E293F088400831390
:100378008001080083120313C6003A30A000003041
:10038800A1004608840083130008A200840A00081C
:10039800A3008A11FD248A118312031346088400DE
:1003A800200883138000840A210880003A30A000C6
:1003B8000030A100410884000008A200840A000857
:1003C800A3008A11FD248A118312031341088400B3
:1003D800200883138000840A210880003A30A00096
:1003E8000030A100420884000008A200840A000826
:1003F800A3008A11FD248A11831203134208840082
:10040800200883138000840A210880003A30A00065
:100418000030A100430884000008A200840A0008F4
:10042800A3008A11FD248A11831203134308840050
:10043800200883138000840A2108800046088A1156
:1004480016248A118312031341088A1116248A116B
:100458008312031342088A1116248A118312031384
:1004680043088A1116248A110B3083120313C5001E
:100478004508AE0046080A3E840083130008AF0012
:10048800840A0008B00041080A3E84000008B10050
:10049800840A0008B20042080A3E84000008B3003B
:1004A800840A0008B40043080A3E84000008B50026
:1004B800840A0008B60044088A110F210800F500D4
:1004C8008B1183120313061E792A73088400831381
:1004D8000008031D792A83160313061E792A83123E
:1004E80003138E018F010430E12A8312061A892A28
:1004F80073088400043083130006031D892A8316B9
:100508000313061E892A7508F72A8312861E9C2A59
:100518007308840083130008031D9C2A83160313A1
:10052800861E9C2A831203138E018F010530E12A4F
:100538008312861AAC2A73088400053083130006D8
:10054800031DAC2A83160313861EAC2A7008F72AEB
:100558008312061FBF2A7308840083130008031D33
:10056800BF2A83160313061FBF2A831203138E01A3
:100578008F010630E12A8312061BCF2A73088400F4
:10058800063083130006031DCF2A83160313061FA4
:10059800CF2A7108F72A8312861FE82A7308840075
:1005A80083130008031DE82A83160313861FE82A0D
:1005B800831203138E018F010730F400730884003F
:1005C800740880001014032B8312861B032B7308F6
:1005D8008400073083130006031D032B83160313BF
:1005E800861F032B72088400831203130E088000F1
:1005F800840A0F08800073088400800110100B1013
:100608008B15080083120313AA01A31F182BA00936
:10061800A109A209A309A00A0319A10A0319A20A98
:100628000319A30AAA01AA0AA71F292BA409A50925
:10063800A609A709A40A0319A50A0319A60A0319F2
:10064800A70A0130A8002808AA060030AE0000302A
:10065800AD000030AC000030AB00230822042104B8
:10066800200403197E2BA901A90AA31B492B0130D9
:10067800A8000310A00DA10DA20DA30DA80B3D2BE2
:100688000130A8002808A907392B0130A800031059
:10069800AB0DAC0DAD0DAE0DA80B4B2B23082702EF
:1006A800031D602B22082602031D602B210825024A
:1006B800031D602B20082402031C712B2008A402B0
:1006C8002108031C210FA5022208031C220FA602E1
:1006D8002308031C230FA7022B1401300310A30CBB
:1006E800A20CA10CA00CFF3E031D722B0130A90225
:1006F800031D492B2A0803198C2BAB09AC09AD093A
:10070800AE09AB0A0319AC0A0319AD0A0319AE0AFC
:100718002E08A3002D08A2002C08A1002B08A00079
:1007280008008B178B1510308316031386000630CC
:1007380083120313A000A00B9F2B00008312031346
:1007480006140630A000A00BA72B00008312031389
:1007580006108230A100DD30A000A00BB12BA10B48
:10076800B12BB62B20308316031386000630831274
:100778000313A000A00BBE2B0000831203138614E2
:100788000630A000A00BC62B0000831203138610AE
:100798008230A100DD30A000A00BD02BA10BD02B04
:1007A800D52B4030831603138600063083120313BB
:1007B800A000A00BDD2B00008312031306150630E2
:1007C800A000A00BE52B0000831203130611823052
:1007D800A100DD30A000A00BEF2BA10BEF2BF42B19
:1007E8008030831603138600063083120313A0009B
:1007F800A00BFC2B00008312031386150630A00003
:10080800A00B042C00008312031386118230A10070
:10081800DD30A000A00B0E2CA10B0E2C132C8B117D
:100828008B13080083120313AF00AE01AC01AD01B6
:10083800B001053030020318722C3008A8002807D0
:100848002F07A9002908840083130008AA00840A36
:100858000008AB002B08803AFF0081307F02031D9F
:10086800372C91302A020318462C831203133008C0
:10087800A80028072F07A90029088400840A8313E1
:10088800801F542C831203133008A80028072F0751
:10089800A9002908840083138001840A80016A2C36
:1008A8003008A80028072F07A90029088400000895
:1008B800AA00840A0008AB002A08AC070318AD0A8E
:1008C8002B08AD070130A8002808AE070130A800A2
:1008D8002808B00705303002031C212C2E08A80078
:1008E800A9012808A0002908A1002D08A3002C08A8
:1008F800A2008A119C25831203132F080A3E840044
:10090800200883138000840A2108800008008312CD
:100918000313A900AA0104302A02031808002A08B0
:10092800A30023072907A4002408840083130008D0
:10093800A500840A0008A6002A08A7002707023E87
:100948002907A8002808840025088000840A2608AA
:1009580080002A08A30023072007A4002408840095
:100968000008A500840A0008A6002A08A70027078F
:10097800023E2007A8002808840025088000840A71
:10098800260880002A08A30023072107A4002408BA
:1009980084000008A500840A0008A6002A08A70009
:1009A8002707023E2107A8002808840025088000A0
:1009B800840A260880002A08A30023072207A40027
:1009C800240884000008A500840A0008A6002A0854
:1009D800A7002707023E2207A80028088400250848
:1009E8008000840A260880000130A3002308AA0793
:1009F8008F2C83120313A601A11F092DA009A10999
:100A0800A00A0319A10AA601A60AA31F142DA20968
:100A1800A309A20A0319A30A0130A4002408A60600
:100A2800A701A8012008210403194B2DA501A50A37
:100A3800A11B2A2D01300310A00DA10DFF3E031D9F
:100A48001F2D0130A4002408A5071C2D0130031018
:100A5800A70DA80DFF3E031D2B2D21082302031D02
:100A6800372D20082202031C402D2008A20221084D
:100A7800031CA303A302271401300310A10CA00C2C
:100A8800FF3E031D412D0130A502031D2A2D260816
:100A98000319532DA709A809A70A0319A80A2808A2
:100AA800A1002708A00008008A1170268A110030CA
:100AB80083120313B2000030B1002530B00080303B
:100AC800AF008A1122208A118A1195238A116F306A
:100AD8008A118C268A11573083120313C7004708DE
:100AE800C1006330C8004808C200B030C9004908D6
:100AF800C300A030CA004A08C4004B308A11BE2186
:100B08008A11573083120313C7004708A0006330C7
:100B1800C8004808A100B030C9004908A2004B30FD
:100B28008A118B248A11A0308A1131268A11682DE6
:100B380083120313A501A601200821040319D52D4A
:100B4800A701A70AA11BB42D01300310A00DA10D08
:100B5800FF3E031DA92D0130A4002408A707A62DD8
:100B680001300310A50DA60DFF3E031DB52D21086C
:100B78002302031DC12D20082202031CCA2D2008B0
:100B8800A2022108031CA303A302251401300310A9
:100B9800A10CA00CFF3E031DCB2D0130A702031DA5
:100BA800B42D2608A1002508A0000800831203130D
:100BB800280829040319092EAD01AD0AA91BF02D37
:100BC80001300310A80DA90DFF3E031DE52D0130CE
:100BD800AC002C08AD07E22D29082B02031DF62DC9
:100BE80028082A02031CFE2D2808AA022908031C2B
:100BF800AB03AB0201300310A90CA80CFF3E031D88
:100C0800FF2D0130AD02031DF02D2B08A9002A0885
:100C1800A80008000B1C242E5730F6007608F000B8
:100C28006330F7007708F100B030F8007808F20078
:100C38006F30F9007908F3004B308A1163228A116A
:100C48007D0883120313FF007C088A007B08840058
:100C58007A0E8300FE0E7E0E090083120313A40091
:100C6800A201A30122082407A100210884008313FC
:100C780000080319080022082407A100210884009D
:100C8800831300088A11A2268A11013083120313E4
:100C9800A2070318A30A0030A307362E06308A00DD
:100CA8000408840A82070034013400340A3400340A
:100CB80064340034E834033410342734253475346C
:100CC8002C34253475342C34253475342C3425349F
:100CD80075340A34003400347530831603138F00DA
:100CE8008601033083120313A000A00B792E83160C
:100CF800031789018312031386018E018F011030B7
:100D0800900008308B00F03083160313960008001B
:100D180083120313A101831603138601063083127D
:100D28000313A000A00B962E000083120313860164
:100D38000630A000A00B9E2E0000080083120313AB
:100D4800A00083160313981CA52E831203132008F2
:100D58009900080064008001840A0406031900341D
:040D68000406AF2EA0
:04400E00F5EFFFFECD
:00000001FF
