:040000008A11112828
:10000800FE00030EF0000408F1000A08F200831253
:1000180003137F08F3008A11B92C8A111328F801F9
:10002800F90183135030840069308A15B2278A1188
:10003800A0308400B0308A15B2278A118A15AC27FF
:100048008A11E9008A15AD278A11EA008A15AE27B8
:100058008A11EB008A15AF278A11EC008A15B027A0
:100068008A11ED008A15B127EE0083018A11DE2D71
:100078003A30F4000030F500831203133808F70013
:100088003708F6008A116A268A1175088312031345
:10009800C5007408C4003A30F4000030F5003A088E
:1000A800F7003908F6008A116A268A117508831242
:1000B8000313C7007408C6003A30F4000030F50096
:1000C8003C08F7003B08F6008A116A268A11750871
:1000D80083120313C9007408C8003A30F4000030D2
:1000E800F5003E08F7003D08F6008A116A268A11D5
:1000F800750883120313CB007408CA00440845042A
:10010800031D8828223092280130831203134502E8
:10011800913003194402031C96282830C300430871
:10012800AA00A0281B3083120313C3004308AA00A7
:100138004508AC004408AB003F088400831300085E
:100148008A11E2228A118312031346084704031D09
:10015800AF282230B92801308312031347029130A7
:1001680003194602031CBD282830C3004308AA000F
:10017800C7281B3083120313C3004308AA0047088B
:10018800AC004608AB0040088400831300088A11BD
:10019800E2228A118312031348084904031DD62852
:1001A8002230E028013083120313490291300319E9
:1001B8004802031CE4282830C3004308AA00EE289C
:1001C8001B3083120313C3004308AA004908AC007C
:1001D8004808AB0041088400831300088A11E22212
:1001E8008A11831203134A084B04031D062922307F
:1001F800C3004308AA0042088400831300088A1138
:10020800E22208000130831203134B0291300319D4
:100218004A02031C1A292830C3004308AA004208CE
:100228008400831300088A11E22208001B3083121D
:100238000313C3004308AA004B08AC004A08AB00EC
:1002480042088400831300088A11E22208008312FE
:1002580003132E08B2002F08B3003008B400310889
:10026800B50006300310B20DB30DB40DB50DFF3E49
:10027800031D36293508A3003408A2003308A1005D
:100288003208A0000030B6001230B7007A30B8004B
:100298000030B9002E08BA002F08BB003008BC0097
:1002A8003108BD0006300310BA0DBB0DBC0DBD0DE5
:1002B800FF3E031D5729BA09BB09BC09BD09BA0A83
:1002C8000319BB0A0319BC0A0319BD0A3A08B60781
:1002D8003B0803183B0F71297229B7073C0803181C
:1002E8003C0F77297829B8073D0803183D0AB90754
:1002F8003908A7003808A6003708A5003608A40062
:100308008A112A248A11831203132108F60020086F
:10031800F50001307602003003197502031CF72935
:100328002E08B2002F08B3003008B4003108B50019
:1003380004300310B20DB30DB40DB50DFF3E031D0F
:100348009D293508A3003408A2003308A10032080B
:10035800A0000030B6001230B7007A30B800003084
:10036800B9002E08BA002F08BB003008BC003108BD
:10037800BD0004300310BA0DBB0DBC0DBD0DFF3E12
:10038800031DBE29BA09BB09BC09BD09BA0A03196C
:10039800BB0A0319BC0A0319BD0A3A08B6073B0889
:1003A80003183B0FD829D929B7073C0803183C0F75
:1003B800DE29DF29B8073D0803183D0AB9073908BF
:1003C800A7003808A6003708A5003608A4008A1137
:1003D8002A248A11831203132108F6002008F50045
:1003E80083160313181501307602003003197502BD
:1003F800031808007508831603139900181283124E
:100408000313981783160313871707178312031309
:100418001816831603139816080083120313AA00EC
:100428002A088A1176278A1183120313A70027083E
:10043800EF002608A7002708EA002508A7002708D4
:10044800E9000230A9000430A800BA30A700A70BC1
:100458002B2AA80B2B2AA90B2B2A00000430831265
:1004680003136F06031D762A03308A112C268A117E
:100478000D3083120313A800FB30A700A70B422AF4
:10048800A80B422A472A03308A112C268A114F309A
:1004980083120313A700A70B4F2A522A03308A118D
:1004A8002C268A114F3083120313A700A70B5A2A50
:1004B8005D2A02308A112C268A114F3083120313C9
:1004C800A700A70B652A682A83120313A2012C3000
:1004D8008A1118278A11213083120313A700A70B4A
:1004E800732AB52A0830831203136F06031DB52A31
:1004F800A20120308A1118278A110D3083120313A4
:10050800A800FB30A700A70B872AA80B872A8C2AEC
:1005180083120313A20120308A1118278A114F3041
:1005280083120313A700A70B972A9A2A831203138F
:10053800A20120308A1118278A114F308312031321
:10054800A700A70BA52AA82A83120313A2013C30EF
:100558008A1118278A11213083120313A700A70BC9
:10056800B32A83120313A20108308A1118278A11AB
:10057800213083120313A700A70BC02A8312031389
:10058800A20101308A1118278A1106308312031339
:10059800A8003030A700A70BCF2AA80BCF2A00004D
:1005A80083120313A20106308A1118278A112130F9
:1005B80083120313A700A70BDF2A08008312031373
:1005C800B5002B30AD002D08B1000130AA07FF306F
:1005D8002A0784008A11B2268A11AD002D08B600B8
:1005E800360803198C2B253036060319072B3608D5
:1005F800AD00350884002D08831380000130AD005C
:100608002D08B507E92AB0010E2BC030AD002D0822
:10061800B0041E2B0130AA07FF302A0784008A1174
:10062800B2268A11B600003A03198C2B753A0319C1
:10063800092BE92A3108840083130008B200840AD0
:100648000008B3000230AD002D08B107B601B60AA4
:100658000530360603194D2B3608AD002D07013E2F
:1006680084008A11B2268A11AE008A11B2268A1134
:10067800AF002F083302031D432B2E083202031C40
:100688004D2B0130AD002D08B60705303606031D89
:10069800302B3608AD002D08B400FF30AD002D0812
:1006A800B407340A0319E92A0A30A4000030A50067
:1006B8003408AD002D07013E84008A11B2268A1144
:1006C800F4008A11B2268A11F5003308F7003208BF
:1006D800F6008A116A268A11750883120313A70087
:1006E8007408A6008A11E4268A11831203132408C9
:1006F800303EAE002E08B6003608AD00350884003E
:100708002D08831380000130AD002D08B507512B4B
:100718003508840083138001080083120313AD0099
:10072800A50100308A11BA278A110F3083120313EA
:10073800A5008030A6008A1199278A118312031315
:10074800A5010C308A11BA278A11831203132D08C8
:10075800A5000030A6008A1199278A118312031375
:10076800A501A50A00308A11BA278A11831203133A
:100778002808A5000030A6008A1199278A1183123B
:100788000313A501A50A06308A11BA278A11831214
:1007980003132908A5000030A6008A1199278A1199
:1007A80083120313A501A50A0C308A11BA278A11EE
:1007B800831203132A08A5000030A6008A1199277E
:1007C8008A11831203132D088A11DB278A110D3031
:1007D80083120313AC00FB30AB00AB0BF12BAC0B5B
:1007E800F12BF62B8312031328088A11DB278A11B1
:1007F8000D3083120313AC00FB30AB00AB0B022CA3
:10080800AC0B022C072C8312031329088A11DB274F
:100818008A110D3083120313AC00FB30AB00AB0B15
:10082800132CAC0B132C182C831203132A088A11CF
:10083800DB278A110D3083120313AC00FB30AB00A9
:10084800AB0B242CAC0B242C292C0800831203138B
:10085800A901A31F3C2CA009A109A209A309A00A68
:100868000319A10A0319A20A0319A30AA901A90ACB
:10087800A71F4D2CA409A509A609A709A40A0319AD
:10088800A50A0319A60A0319A70A0130F400740877
:10089800A9060030AD000030AC000030AB000030DD
:1008A800AA0023082204210420040319A22CA80169
:1008B800A80AA31B6D2C0130F4000310A00DA10D94
:1008C800A20DA30DF40B612C0130F4007408A807E5
:1008D8005D2C0130F4000310AA0DAB0DAC0DAD0D6D
:1008E800F40B6F2C23082702031D842C22082602F0
:1008F800031D842C21082502031D842C20082402B2
:10090800031C952C2008A4022108031C210FA50212
:100918002208031C220FA6022308031C230FA70288
:100928002A1401300310A30CA20CA10CA00CFF3E4A
:10093800031D962C0130A802031D6D2C29080319EC
:10094800B02CAA09AB09AC09AD09AA0A0319AB0A6C
:100958000319AC0A0319AD0A2D08A3002C08A2003C
:100968002B08A1002A08A00008000B1C1C2D8B11C5
:10097800061EC62C78087904031DC62C8E018F012B
:100988000430072D061AD22C043078067904031D8A
:10099800D22C0F08D1000E08D000172D861EDC2C93
:1009A80078087904031DDC2C8E018F010530072D92
:1009B800861AE82C053078067904031DE82C0F0800
:1009C800D3000E08D200172D061FF22C78087904E0
:1009D800031DF22C8E018F010630072D061BFE2CFD
:1009E800063078067904031DFE2C0F08D5000E0882
:1009F800D400172D861F0C2D78087904031D0C2DA3
:100A08008E018F010730F8000030F90010141A2DFC
:100A1800861B1A2D073078067904031D1A2D0F0836
:100A2800D7000E08D600F801F90110100B108B152D
:100A38007308FF0072088A0071088400700E830032
:100A4800FE0E7E0E090010308316031386008312F3
:100A5800031306140630F400F40B302D0000831243
:100A6800031306108230F500DD30F400F40B3A2D44
:100A7800F50B3A2D3F2D2030831603138600831281
:100A8800031386140630F400F40B482D000083127B
:100A9800031386108230F500DD30F400F40B522D7C
:100AA800F50B522D572D4030831603138600831201
:100AB800031306150630F400F40B602D00008312B2
:100AC800031306118230F500DD30F400F40B6A2DB3
:100AD800F50B6A2D6F2D8030831603138600831261
:100AE800031386150630F400F40B782D00008312EA
:100AF800031386118230F500DD30F400F40B822DEB
:100B0800F50B822D872D0800F500C62D741C902D3D
:100B18008312031307140800831203130710080035
:100B2800741C9A2D8312031387140800831203136D
:100B380087100800741CA42D8312031307150800DE
:100B48008312031307110800741CAE2D83120313BC
:100B5800871508008312031387110800741CB82D29
:100B680083120313071608008312031307120800E1
:100B7800741CC22D831203138716080083120313F3
:100B8800871208007508043A03198A2D013A0319D7
:100B9800942D033A03199E2D013A0319A82D0F3AF3
:100BA8000319BC2D013A0319B22D033A0319DD2D9F
:100BB800DD2D08008A1149278A110030831203139A
:100BC800B1000030B0002530AF008030AE008A118F
:100BD8002B218A118A1127258A11831203135108A0
:100BE800B8005008B7005308BA005208B9005508B1
:100BF800BC005408BB005708BE005608BD006B3047
:100C0800CC004C08BF006C30CD004D08C0006D30E2
:100C1800CE004E08C1006E30CF004F08C2008A11C6
:100C28003C208A11613083120313CC004C08A800C1
:100C3800A030CD004D08A900A830CE004E08AA006B
:100C480059308A1191238A118A15E7278A11EE2DC6
:100C580083120313A0000430F6007608A1000830C0
:100C6800210203185A2E0130F6002108FC3E013EED
:100C78003F2E0310F60DFF3E031D3D2E760820057E
:100C88000319482E0130492E0030F7007708F40088
:100C980021088A1188258A110130F6007608831206
:100CA8000313A10708302102031C372EF401F40AAC
:100CB80008308A1188258A110630F600F60B622E54
:100CC8000000F40108308A118825080083120313F4
:100CD800A201A301740875040319A32EA101A10A96
:100CE800F51B822E01300310F40DF50DFF3E031D98
:100CF800772E0130A0002008A107742E01300310C0
:100D0800A20DA30DFF3E031D832E75087702031D58
:100D18008F2E74087602031C982E7408F602750844
:100D2800031CF703F702221401300310F50CF40C2E
:100D3800FF3E031D992E0130A102031D822E2308B8
:100D4800F5002208F4000800FF1BB22E83137F1859
:100D580083170008840A0319FF0A080006308A006E
:100D68000408840A82070034013400340A34003449
:100D780064340034E8340334103427340034403405
:100D880014345434443469347334743461346E34F0
:100D980063346934613473343A3400342534753437
:100DA800203420342034003400344E344F3450344E
:100DB8004534003400344F3455345434003400344E
:100DC80083120313240825040319132FA901A90A60
:100DD800A51BFA2E01300310A40DA50DFF3E031D1F
:100DE800EF2E0130A8002808A907EC2E25082702B5
:100DF800031D002F24082602031C082F2408A6021E
:100E08002508031CA703A70201300310A50CA40C96
:100E1800FF3E031D092F0130A902031DFA2E2708E2
:100E2800A5002608A400080083120313A4002208C2
:100E38000319212FF401F40A222FF40109308A1131
:100E480088258A11F4010A308A1188258A1104300C
:100E5800831203136F06031D432F2408A3000430D5
:100E68000310A30CFF3E031D342F23088A112C26E0
:100E78008A118312031324088A112C26080083126E
:100E8800031324088A11FC270800753083160313FE
:100E98008F00F03086008312031386018316031730
:100EA8008901831203138E018F01103090000830DE
:100EB8008B00F0308316031396008B1710308312C3
:100EC8000313AB002B08A5000230AC002C08A600C9
:100ED80000308A1111228A118A15D4278A118A159D
:100EE800C427080083120313A10183160313871272
:100EF8000712071087100711871183120313A10126
:100F08000B3021020318972FF40121088A11882534
:100F18008A110130F600760883120313A1070B30FB
:100F28002102031C882F04300800831203132608AB
:100F3800FF00250884008A11A8268A11003A03199F
:100F4800080083120313A201A20A2608FF0025083D
:100F580084008A11A8268A118A1118278A1101305B
:100F680083120313A5070318A60A992F83120313E4
:100F7800A7006A082502031CC62F6A08FF3EA600C0
:100F88002608A50069082702031CCF2F6908FF3E21
:100F9800A6002608A700A20125080B3E84008A1196
:100FA800B2268A11270780388A1118270800831269
:100FB8000313A200A001A10120082207F50075086B
:100FC8008400831300080319080020082207F5008D
:100FD80075088400831300088A15BA278A1101301E
:100FE80083120313A0070318A10A0030A107E02FFA
:020FF8000800EF
:101F58001034023459346134A034A8346400800148
:101F6800840A0406031900340406B32FF400831608
:101F78000313981CBB2F74088312031399000800DD
:101F8800831203135815A201580808388A11182714
:101F98008A15213083120313A500A50BD12F080041
:101FA80083120313A20101308A1118278A150630FB
:101FB80083120313A6003030A500A50BE12FA60B52
:101FC800E12F000008008316031386010D30F50089
:101FD800FB30F400F40BEE2FF50BEE2FF32F8312EA
:101FE800031386010D30F500FB30F400F40BFA2FD3
:081FF800F50BFA2FFF2F080082
:04400E00F5EFFFFECD
:00000001FF
