:040000008A11112828
:10000800FE00030EFA000408FB000A08FC00831235
:1000180003137F08FD008A11062D8A111328831304
:100028002030840045308A1169258A11A030840067
:10003800B4308A11692583018A119E2C8312031317
:100048005408D8005508D9005608DA005708DB00CC
:1000580006300310D80DD90DDA0DDB0DFF3E031D58
:100068002D285B08C8005A08C7005908C600580858
:10007800C5000030DC001230DD007A30DE000030D0
:10008800DF005408E0005508E1005608E200570870
:10009800E30006300310E00DE10DE20DE30DFF3E35
:1000A800031D4E28E009E109E209E309E00A031902
:1000B800E10A0319E20A0319E30A6008DC07610888
:1000C8000318610F68286928DD0762080318620FA2
:1000D8006E286F28DE0763080318630ADF075F08C6
:1000E800CC005E08CB005D08CA005C08C9008A1114
:1000F800EF218A11831203134608E5004508E4003E
:1001080001306502003003196402031CEE2854080C
:10011800D8005508D9005608DA005708DB00043023
:100128000310D80DD90DDA0DDB0DFF3E031D942801
:100138005B08C8005A08C7005908C6005808C50017
:100148000030DC001230DD007A30DE000030DF00E5
:100158005408E0005508E1005608E2005708E3009B
:1001680004300310E00DE10DE20DE30DFF3E031D29
:10017800B528E009E109E209E309E00A0319E10AFF
:100188000319E20A0319E30A6008DC076108031887
:10019800610FCF28D028DD0762080318620FD52821
:1001A800D628DE0763080318630ADF075F08CC0058
:1001B8005E08CB005D08CA005C08C9008A11EF21FF
:1001C8008A11831203134608E5004508E4008316E4
:1001D80003131815013083126502003003196402F5
:1001E80003180800831603131811831203136408F5
:1001F8008316031399001812831203139817831692
:10020800031387170713181383120313181683167B
:1002180003139816080083120313DC003A30C50054
:100228000030C6005C08840083130008C700840AF5
:100238000008C8008A1143248A11831203135C083A
:100248008400450883138000840A460880003A30F9
:10025800C5000030C600550884000008C700840A9D
:100268000008C8008A1143248A1183120313550811
:100278008400450883138000840A460880003A30C9
:10028800C5000030C600560884000008C700840A6C
:100298000008C8008A1143248A11831203135608E0
:1002A8008400450883138000840A460880003A3099
:1002B800C5000030C600570884000008C700840A3B
:1002C8000008C8008A1143248A11831203135708AF
:1002D8008400450883138000840A460880005C086F
:1002E8008A117E228A118312031355088A117E22ED
:1002F8008A118312031356088A117E228A118312E7
:10030800031357088A117E228A11831203135C088B
:100318000A3E840083130008D900840A0008DA0022
:100328005A08DB00580884005B0880005C080A3E15
:1003380084000008D900580A84005908800055082C
:100348000A3E84000008D900840A0008DA005A0826
:10035800DB005808023E84005B08800055080A3E0E
:1003680084000008D9005808033E8400590880001A
:1003780056080A3E84000008D900840A0008DA00FA
:100388005A08DB005808043E84005B0880005608C1
:100398000A3E84000008D9005808053E8400590820
:1003A800800057080A3E84000008D900840A000823
:1003B800DA005A08DB005808063E84005B08800013
:1003C80057080A3E84000008D9005808073E8400F0
:1003D80059088000080083120313CF01C81F012A9F
:1003E800C509C609C709C809C50A0319C60A0319F0
:1003F800C70A0319C80ACF01CF0ACC1F122AC90994
:10040800CA09CB09CC09C90A0319CA0A0319CB0AB4
:100418000319CC0A0130CD004D08CF060030D300B7
:100428000030D2000030D1000030D0004808470426
:10043800460445040319672ACE01CE0AC81B322A8E
:100448000130CD000310C50DC60DC70DC80DCD0B6D
:10045800262A0130CD004D08CE07222A0130CD00D2
:100468000310D00DD10DD20DD30DCD0B342A480871
:100478004C02031D492A47084B02031D492A460816
:100488004A02031D492A45084902031C5A2A4508FD
:10049800C9024608031C460FCA024708031C470F37
:1004A800CB024808031C480FCC025014013003103B
:1004B800C80CC70CC60CC50CFF3E031D5B2A0130D7
:1004C800CE02031D322A4F080319752AD009D10913
:1004D800D209D309D00A0319D10A0319D20A031978
:1004E800D30A5308C8005208C7005108C60050086C
:1004F800C500080083120313D400D201D3010530CC
:1005080053020318E02A5308CE004E075407CF00C1
:100518004F08840083130008D000840A0008D10023
:100528005108803AFF0081307F02031D9D2A9130D7
:1005380050020318AC2A831203135308CE004E0747
:100548005407CF004F088400840A8313801FBA2AF7
:10055800831203135308CE004E075407CF004F08E9
:10056800840083138001840A8001D82A5308CE00AE
:100578004E075407CF004F0884000008D000840AB3
:100588000008D10054080A3E840050088007840FF0
:1005980000080318000AFF0051087F078000840341
:1005A8000130CE004E08D2070130CE004E08D307E6
:1005B80005305302031C872A5208CE00CF014E088B
:1005C800C5004F08C60054080A3E8400831300087B
:1005D800C700840A0008C8008A1143248312031341
:1005E80054080A3E8400450883138000840A46089C
:1005F8008000080083120313CE00CF0104304F029D
:10060800031808004F08C80048074E07C9004908E2
:10061800840083130008CA00840A0008CB004F082E
:10062800CC004C07023E4E07CD004D0884004A0816
:100638008000840A4B0880004F08C8004807450717
:10064800C900490884000008CA00840A0008CB00D1
:100658004F08CC004C07023E4507CD004D088400EA
:100668004A088000840A4B0880004F08C8004807E1
:100678004607C900490884000008CA00840A00081F
:10068800CB004F08CC004C07023E4607CD004D0872
:1006980084004A088000840A4B0880004F08C8007C
:1006A80048074707C900490884000008CA00840AA7
:1006B8000008CB004F08CC004C07023E4707CD008E
:1006C8004D0884004A088000840A4B0880000130E5
:1006D800C8004808CF07022BF5008B1183120313BB
:1006E800061E802B7308840083130008031D802BCB
:1006F8008E018F010430C42B061A8B2B73088400DB
:10070800043083130006031D8B2B7508D52B861E1A
:10071800972B7308840083130008031D972B8E0101
:100728008F010530C42B861AA22B7308840005306C
:1007380083130006031DA22B7008D52B061FAE2BB2
:100748007308840083130008031DAE2B8E018F01EC
:100758000630C42B061BB92B73088400063083139C
:100768000006031DB92B7108D52B861FCB2B7308E8
:10077800840083130008031DCB2B8E018F010730E3
:10078800F40073088400740880001014DF2B861BA3
:10079800DF2B73088400073083130006031DDF2B4B
:1007A800720884000E088000840A0F08800073080D
:1007B8008400800110100B108B1508001030831670
:1007C800031386008312031306140630C500C50BF5
:1007D800EB2B00008312031306108230C600DD30B5
:1007E800C500C50BF52BC60BF52BFA2B203083164D
:1007F800031386008312031386140630C500C50B45
:10080800032C00008312031386108230C600DD30EB
:10081800C500C50B0D2CC60B0D2C122C40308316B1
:10082800031386008312031306150630C500C50B93
:100838001B2C00008312031306118230C600DD3022
:10084800C500C50B252CC60B252C2A2C80308316F9
:10085800031386008312031386150630C500C50BE3
:10086800332C00008312031386118230C600DD305A
:10087800C500C50B3D2CC60B3D2C422C080083122D
:100888000313CB01C61F4F2CC509C609C50A031996
:10089800C60ACB01CB0AC81F5A2CC709C809C70A00
:1008A8000319C80A0130C9004908CB06CC01CD019B
:1008B800450846040319912CCA01CA0AC61B702CA4
:1008C80001300310C50DC60DFF3E031D652C013018
:1008D800C9004908CA07622C01300310CC0DCD0DA0
:1008E800FF3E031D712C46084802031D7D2C450858
:1008F8004702031C862C4508C7024608031CC80388
:10090800C8024C1401300310C60CC50CFF3E031D71
:10091800872C0130CA02031D702C4B080319992C2F
:10092800CC09CD09CC0A0319CD0A4D08C6004C08DC
:10093800C50008008A1144258A1100308312031368
:10094800D7000030D6002530D5008030D4008A1179
:1009580022208A118A11E2238A112C308312031370
:10096800E6006608D5003830E7006708D600A030F2
:10097800E8006808D700AC30E9006908D8002030E2
:100988008A110F218A112C3083120313E60066089E
:10099800C5003830E7006708C600A030E8006808DE
:1009A800C70020308A11FE228A118A1129258A114E
:1009B800AC308A11E1248A11AE2C83120313C700CC
:1009C800C801C9014908803AFF0080307F02031D31
:1009D800EF2C083048020318080083120313480854
:1009E8004707C60046088400831300088A115D255E
:1009F8008A11013083120313C8070318C90A00308B
:100A0800C907E62C0B1C1C2D2C30F6007608F000CC
:100A18003830F7007708F100A030F8007808F200C5
:100A28004430F9007908F30020308A1170238A11C4
:100A38007D0883120313FF007C088A007B0884006A
:100A48007A0E8300FE0E7E0E0900831603138601BC
:100A58000D3083120313C600FB30C500C50B322DC1
:100A6800C60B322D372D8312031386010D30C600B5
:100A7800FB30C500C50B3E2DC60B3E2D432D08008F
:100A88007530831603138F00F0308600831203132A
:100A98008601831603178901831203138E018F01C0
:100AA8001030900008308B00F03083160313960046
:100AB800080083120313C50083160313981C602DC6
:100AC8008312031345089900080064008001840A12
:0A0AD80004060319003404066A2D19
:04400E00F5EFFFFECD
:00000001FF
