:040000008A11112828
:10000800FE00030EFA000408FB000A08FC00831235
:1000180003137F08FD008A11F72D8A111328831313
:100028004B30840070308A118E268A11A0308400EB
:10003800CA308A118E2683018A11412D8312031337
:100048002F08B3003008B4003108B5003208B600F4
:1000580006300310B30DB40DB50DB60DFF3E031DEC
:100068002D283608A3003508A2003408A10033085B
:10007800A0000030B7001230B8007A30B900003064
:10008800BA002F08BB003008BC003108BD00320898
:10009800BE0006300310BB0DBC0DBD0DBE0DFF3EEE
:1000A800031D4E28BB09BC09BD09BE09BB0A0319BB
:1000B800BC0A0319BD0A0319BE0A3B08B7073C0866
:1000C80003183C0F68286928B8073D0803183D0F36
:1000D8006E286F28B9073E0803183E0ABA073A087F
:1000E800A7003908A6003808A5003708A4008A1117
:1000F80002238A11831203132108C0002008BF00BD
:1001080001304002003003193F02031CEE282F087B
:10011800B3003008B4003108B5003208B600043026
:100128000310B30DB40DB50DB60DFF3E031D942895
:100138003608A3003508A2003408A1003308A0003F
:100148000030B7001230B8007A30B9000030BA0079
:100158002F08BB003008BC003108BD003208BE00C3
:1001680004300310BB0DBC0DBD0DBE0DFF3E031DBD
:10017800B528BB09BC09BD09BE09BB0A0319BC0ADD
:100188000319BD0A0319BE0A3B08B7073C08031840
:100198003C0FCF28D028B8073D0803183D0FD528B5
:1001A800D628B9073E0803183E0ABA073A08A70036
:1001B8003908A6003808A5003708A4008A110223C8
:1001C8008A11831203132108C0002008BF00831678
:1001D80003131815013083124002003003193F023F
:1001E80003180800831603131811831203133F081A
:1001F8008316031399001812831203139817831692
:10020800031387170713181383120313181683167B
:1002180003139816080083120313BF002F30B7008A
:100228003708BB000130AE07FF302E0784008A1163
:100238003B268A11B7003708C00040080319B929BE
:1002480025304006031934294008B7003F088400C8
:100258003708831380000130B7003708BF07162915
:10026800BA013B29C030B7003708BA044B2901301E
:10027800AE07FF302E0784008A113B268A11C00082
:10028800003A0319B929753A0319362916293B0882
:10029800840083130008BC00840A0008BD000230F3
:1002A800B7003708BB07C001C00A0530400603196C
:1002B8007A294008B7003707013E84008A113B2697
:1002C8008A11B8008A113B268A11B90039083D0203
:1002D800031D702938083C02031C7A290130B70035
:1002E8003708C00705304006031D5D294008B700E0
:1002F8003708BE00FF30B7003708BE073E0A0319AB
:1003080016290A30A8000030A9003E08B7003707B0
:10031800013E84008A113B268A11A0008A113B26DF
:100328008A11A1003D08A3003C08A2008A11852576
:100338008A11831203132108AB002008AA008A112E
:10034800C3258A11831203132808303EB8003808E1
:10035800C0004008B7003F088400370883138000B6
:100368000130B7003708BF077E293F088400831390
:1003780080010800F5008B1183120313061ED4298F
:100388007308840083130008031DD42983160313FC
:10039800061ED429831203138E018F0104303C2AD0
:1003A8008312061AE42973088400043083130006B4
:1003B800031DE42983160313061EE4297508522A2F
:1003C8008312861EF7297308840083130008031D0F
:1003D800F72983160313861EF729831203138E0148
:1003E8008F0105303C2A8312861A072A7308840075
:1003F800053083130006031D072A83160313861E80
:10040800072A7008522A8312061F1A2A73088400C2
:1004180083130008031D1A2A83160313061F1A2ABA
:10042800831203138E018F0106303C2A8312061BA8
:100438002A2A73088400063083130006031D2A2A1B
:1004480083160313061F2A2A7108522A8312861F4D
:10045800432A7308840083130008031D432A831664
:100468000313861F432A831203138E018F0107305B
:10047800F400730884007408800010145E2A831244
:10048800861B5E2A73088400073083130006031D49
:100498005E2A83160313861F5E2A7208840083125D
:1004A80003130E088000840A0F0880007308840074
:1004B800800110100B108B15080083120313C6005F
:1004C8003A30A0000030A1004608840083130008D9
:1004D800A200840A0008A3008A11E6248A11831264
:1004E800031346088400200883138000840A210827
:1004F80080003A30A0000030A100410884000008C4
:10050800A200840A0008A3008A11E6248A11831233
:10051800031341088400200883138000840A2108FB
:1005280080003A30A0000030A10042088400000892
:10053800A200840A0008A3008A11E6248A11831203
:10054800031342088400200883138000840A2108CA
:1005580080003A30A0000030A10043088400000861
:10056800A200840A0008A3008A11E6248A118312D3
:10057800031343088400200883138000840A210899
:10058800800046088A1191238A11831203134108B7
:100598008A1191238A118312031342088A11912325
:1005A8008A118312031343088A1191238A110B308D
:1005B80083120313C5004508AE0046088400831360
:1005C8000008AF00840A0008B00041088400000851
:1005D800B100840A0008B200420884000008B30091
:1005E800840A0008B400430884000008B500840A9F
:1005F8000008B60044088A110F210800831203136B
:10060800AA01A31F142BA009A109A209A309A00AE2
:100618000319A10A0319A20A0319A30AAA01AA0A1B
:10062800A71F252BA409A509A609A709A40A031928
:10063800A50A0319A60A0319A70A0130A800280861
:10064800AA060030AE000030AD000030AC0000302B
:10065800AB00230822042104200403197A2BA901E2
:10066800A90AA31B452B0130A8000310A00DA10D5A
:10067800A20DA30DA80B392B0130A8002808A90743
:10068800352B0130A8000310AB0DAC0DAD0DAE0D30
:10069800A80B472B23082702031D5C2B22082602E0
:1006A800031D5C2B21082502031D5C2B2008240256
:1006B800031C6D2B2008A4022108031C210FA5028E
:1006C8002208031C220FA6022308031C230FA702DB
:1006D8002B1401300310A30CA20CA10CA00CFF3E9C
:1006E800031D6E2B0130A902031D452B2A0803198F
:1006F800882BAB09AC09AD09AE09AB0A0319AC0AE2
:100708000319AD0A0319AE0A2E08A3002D08A2008A
:100718002C08A1002B08A000080083120313AF00C7
:10072800AD01AE0105302E020318F32B2E08A900E7
:1007380029072F07AA002A08840083130008AB00A2
:10074800840A0008AC002C08803AFF0081307F0240
:10075800031DB02B91302B020318BF2B83120313F8
:100768002E08A90029072F07AA002A088400840A4E
:100778008313801FCD2B831203132E08A90029078A
:100788002F07AA002A08840083138001840A8001A5
:10079800EB2B2E08A90029072F07AA002A08840096
:1007A8000008AB00840A0008AC002F080A3E840049
:1007B8002B088007840F00080318000AFF002C0884
:1007C8007F07800084030130A9002908AD070130A4
:1007D800A9002908AE0705302E02031C9A2B2D0804
:1007E800A900AA012908A0002A08A1002F080A3E8A
:1007F800840083130008A200840A0008A3008A1159
:10080800E624831203132F080A3E8400200883136A
:100818008000840A21088000080083120313A900BD
:10082800AA0104302A02031808002A08A300230793
:100838002907A4002408840083130008A500840A5B
:100848000008A6002A08A7002707023E2907A800D3
:100858002808840025088000840A260880002A08C1
:10086800A30023072007A400240884000008A5008B
:10087800840A0008A6002A08A7002707023E2007C6
:10088800A8002808840025088000840A260880001B
:100898002A08A30023072107A400240884000008CD
:1008A800A500840A0008A6002A08A7002707023E18
:1008B8002107A8002808840025088000840A260843
:1008C80080002A08A30023072207A4002408840024
:1008D8000008A500840A0008A6002A08A700270720
:1008E800023E2207A8002808840025088000840A00
:1008F800260880000130A3002308AA07152C8B15B1
:10090800103083160313860083120313061406306F
:10091800A000A00B8D2C0000831203130610823058
:10092800A100DD30A000A00B972CA10B972C9C2CCC
:1009380020308316031386008312031386140630AF
:10094800A000A00BA52C0000831203138610823090
:10095800A100DD30A000A00BAF2CA10BAF2CB42C54
:1009680040308316031386008312031306150630DE
:10097800A000A00BBD2C00008312031306118230C7
:10098800A100DD30A000A00BC72CA10BC72CCC2CDC
:1009980080308316031386008312031386150630EE
:1009A800A000A00BD52C00008312031386118230FF
:1009B800A100DD30A000A00BDF2CA10BDF2CE42C64
:1009C8008B11080083120313A601A11FF22CA009A2
:1009D800A109A00A0319A10AA601A60AA31FFD2CB2
:1009E800A209A309A20A0319A30A0130A400240832
:1009F800A606A701A801200821040319342DA50182
:100A0800A50AA11B132D01300310A00DA10DFF3E57
:100A1800031D082D0130A4002408A507052D013069
:100A28000310A70DA80DFF3E031D142D2108230256
:100A3800031D202D20082202031C292D2008A202B4
:100A48002108031CA303A302271401300310A10CDF
:100A5800A00CFF3E031D2A2D0130A502031D132DF6
:100A6800260803193C2DA709A809A70A0319A80AEB
:100A78002808A1002708A00008008A1159268A1111
:100A8800003083120313B2000030B1002530B000EB
:100A98008030AF008A1122208A118A1183248A119A
:100AA8006F308A1172268A11573083120313C700D8
:100AB8004708C1006330C8004808C200BE30C900FA
:100AC8004908C300A030CA004A08C4004B308A1144
:100AD80061228A11573083120313C7004708A00008
:100AE8006330C8004808A100BE30C9004908A20008
:100AF8004B308A1111248A11A0308A111A268A11C2
:100B0800512D83120313A501A601200821040319FE
:100B1800BE2DA701A70AA11B9D2D01300310A00D12
:100B2800A10DFF3E031D922D0130A4002408A70744
:100B38008F2D01300310A50DA60DFF3E031D9E2D20
:100B480021082302031DAA2D20082202031CB32D0D
:100B58002008A2022108031CA303A30225140130C4
:100B68000310A10CA00CFF3E031DB42D0130A702F9
:100B7800031D9D2D2608A1002508A000080083124A
:100B88000313280829040319F22DAD01AD0AA91B86
:100B9800D92D01300310A80DA90DFF3E031DCE2D40
:100BA8000130AC002C08AD07CB2D29082B02031D02
:100BB800DF2D28082A02031CE72D2808AA02290885
:100BC800031CAB03AB0201300310A90CA80CFF3EB9
:100BD800031DE82D0130AD02031DD92D2B08A900F6
:100BE8002A08A80008000B1C0D2E5730F6007608BE
:100BF800F0006330F7007708F100BE30F80078089D
:100C0800F2006F30F9007908F3004B308A11BE21E9
:100C18008A117D0883120313FF007C088A007B0871
:100C280084007A0E8300FE0E7E0E090083120313E1
:100C3800A400A201A30122082407A100210884001E
:100C4800831300080319080022082407A1002108BB
:100C58008400831300088A1182268A1101308312C6
:100C68000313A2070318A30A0030A3071F2E063098
:100C78008A000408840A82070034013400340A34E4
:100C8800003464340034E834033410342734253411
:100C980075342C34253475342C34253475342C347F
:100CA800253475340A340034003475308316031340
:100CB8008F008601831203138601831603178901A7
:100CC800831203138E018F011030900008308B00BF
:100CD800F0308316031396008B1708008312031352
:100CE800A101831603138601033083120313A000A6
:100CF800A00B7C2E831203138601080083120313B2
:100D0800A00083160313981C852E83120313200852
:100D18009900080064008001840A0406031900345D
:040D280004068F2E00
:04400E00F5EFFFFECD
:00000001FF
