:040000008A11112828
:10000800FE00030EFA000408FB000A08FC00831235
:1000180003137F08FD008A11812F8A111328EC0130
:10002800ED018313A0308400D8308A15F8278A118F
:100038008A11F9278A11EE008A11FA27EF00830145
:100048008A11A42D83120313B7003A30A0000030A0
:10005800A1003708840083130008A200840A00085E
:10006800A3008A11F1248A1183120313370884002C
:10007800200883138000840A210880003A30A000F9
:100088000030A100300884000008A200840A00089B
:10009800A3008A11F1248A11831203133008840003
:1000A800200883138000840A210880003A30A000C9
:1000B8000030A100310884000008A200840A00086A
:1000C800A3008A11F1248A118312031331088400D2
:1000D800200883138000840A210880003A30A00099
:1000E8000030A100320884000008A200840A000839
:1000F800A3008A11F1248A118312031332088400A1
:10010800200883138000840A2108800037088A1198
:100118002C238A118312031330088A112C238A1185
:100128008312031331088A112C238A1183120313B3
:1001380032088A112C238A118312031337080A3EC6
:10014800840083130008B400840A0008B500350849
:10015800B600330884003608800037080A3E840059
:100168000008B400330A84003408800030080A3ECE
:1001780084000008B400840A0008B5003508B600F9
:100188003308023E84003608800030080A3E8400A6
:100198000008B4003308033E8400340880003108A6
:1001A8000A3E84000008B400840A0008B500350837
:1001B800B6003308043E84003608800031080A3E41
:1001C80084000008B4003308053E84003408800029
:1001D80032080A3E84000008B400840A0008B5000A
:1001E8003508B6003308063E840036088000320819
:1001F8000A3E84000008B4003308073E840034082F
:100208008000080083120313AE002E088A115E27AF
:100218008A1183120313AB002B0883160313D8002B
:10022800831203132A08AB002B08EF002908AB0040
:100238002B08EE000230AD000430AC00BA30AB0041
:10024800AB0B2429AC0B2429AD0B24290000043066
:10025800831603135806031D6F2903308A11E825F6
:100268008A110D3083120313AC00FB30AB00AB0BCB
:100278003B29AC0B3B29402903308A11E8258A1118
:100288004F3083120313AB00AB0B48294B290330C3
:100298008A11E8258A114F3083120313AB00AB0B88
:1002A8005329562902308A11E8258A114F308312C2
:1002B8000313AB00AB0B5E29612983120313A6015C
:1002C8002C308A1168268A11213083120313AB005F
:1002D800AB0B6C29B0290830831603135806031D8D
:1002E800B02983120313A60120308A1168268A11C7
:1002F8000D3083120313AC00FB30AB00AB0B82292B
:10030800AC0B8229872983120313A60120308A1196
:1003180068268A114F3083120313AB00AB0B922966
:10032800952983120313A60120308A1168268A11A1
:100338004F3083120313AB00AB0BA029A329831200
:100348000313A6013C308A1168268A1121308312D2
:100358000313AB00AB0BAE2983120313A6010830BD
:100368008A1168268A11213083120313AB00AB0B64
:10037800BB2983120313A60101308A1168268A114A
:10038800063083120313AC003030AB00AB0BCA2924
:10039800AC0BCA29000083120313A60106308A1188
:1003A80068268A11213083120313AB00AB0BDA29BC
:1003B800080083120313B9002F30B1003108B500CB
:1003C8000130AE07FF302E0784008A110A278A11F0
:1003D800B1003108BA003A080319872A25303A06CD
:1003E8000319022A3A08B100390884003108831336
:1003F80080000130B1003108B907E429B401092AA5
:10040800C030B1003108B404192A0130AE07FF30FA
:100418002E0784008A110A278A11BA00003A0319A4
:10042800872A753A0319042AE429350884008313B6
:100438000008B600840A0008B7000230B10031088D
:10044800B507BA01BA0A05303A060319482A3A0824
:10045800B1003107013E84008A110A278A11B200CF
:100468008A110A278A11B30033083702031D3E2A6E
:1004780032083602031C482A0130B1003108BA0795
:1004880005303A06031D2B2A3A08B1003108B80096
:10049800FF30B1003108B807380A0319E4290A30D7
:1004A800A8000030A9003808B1003107013E8400D7
:1004B8008A110A278A11A0008A110A278A11A10025
:1004C8003708A3003608A2008A112A268A11831247
:1004D80003132108AB002008AA008A119F268A115D
:1004E800831203132808303EB2003208BA003A08D3
:1004F800B100390884003108831380000130B1004D
:100508003108B9074C2A3908840083138001080090
:1005180083120313E7001B30BE003E08AE006708D5
:100528000A3E840083130008AF00840A0008B00064
:100538003F308A11DD218A111B3083120313BE005C
:100548003E08AE003B080A3E840083130008AF0053
:10055800840A0008B00049308A11DD218A111B3055
:1005680083120313BE003E08AE003C080A3E840016
:1005780083130008AF00840A0008B00053308A11C2
:10058800DD218A111B3083120313BE003E08AE0022
:100598003D080A3E840083130008AF00840A00085F
:1005A800B0005D308A11DD218A1183120313A9017D
:1005B80000308A11C5278A110F3083120313A9004E
:1005C8008030AA008A11A4278A1183120313A90173
:1005D8000C308A11C5278A113F3083120313A900F2
:1005E8000030AA008A11A4278A1183120313A901D3
:1005F800A90A00308A11C5278A11493083120313CA
:10060800A9000030AA008A11A4278A1183120313B3
:10061800A901A90A06308A11C5278A115330831205
:100628000313A9000030AA008A11A4278A11831293
:100638000313A901A90A0C308A11C5278A115D3054
:1006480083120313A9000030AA008A11A427080006
:1006580083120313AF00AD01AE0105302E0203185B
:100668008E2B2E08A90029072F07AA002A08840024
:1006780083130008AB00840A0008AC002C08803AF9
:10068800FF0081307F02031D4B2B91302B02031892
:100698005A2B831203132E08A90029072F07AA0033
:1006A8002A088400840A8313801F682B831203138B
:1006B8002E08A90029072F07AA002A0884008313F7
:1006C8008001840A8001862B2E08A90029072F079C
:1006D800AA002A0884000008AB00840A0008AC00BD
:1006E8002F080A3E84002B088007840F000803188F
:1006F800000AFF002C087F07800084030130A9004E
:100708002908AD070130A9002908AE0705302E02D7
:10071800031C352B2D08A900AA012908A0002A08C6
:10072800A1002F080A3E840083130008A200840A4F
:100738000008A3008A11F124831203132F080A3E2C
:100748008400200883138000840A210880000800A0
:1007580083120313A900AA0104302A02031808000F
:100768002A08A30023072907A40024088400831368
:100778000008A500840A0008A6002A08A700270781
:10078800023E2907A8002808840025088000840A5A
:10079800260880002A08A30023072007A4002408AD
:1007A80084000008A500840A0008A6002A08A700FB
:1007B8002707023E2007A800280884002508800093
:1007C800840A260880002A08A30023072107A4001A
:1007D800240884000008A500840A0008A6002A0846
:1007E800A7002707023E2107A8002808840025083B
:1007F8008000840A260880002A08A300230722070D
:10080800A400240884000008A500840A0008A600A3
:100818002A08A7002707023E2207A8002808840004
:1008280025088000840A260880000130A3002308D8
:10083800AA07B02BF5008B1183120313061E2E2C6A
:100848007308840083130008031D2E2C8E018F016A
:100858000430722C061A392C730884000430831370
:100868000006031D392C7508832C861E452C730839
:10087800840083130008031D452C8E018F01053069
:10088800722C861A502C73088400053083130006D6
:10089800031D502C7008832C061F5C2C73088400E1
:1008A80083130008031D5C2C8E018F010630722C07
:1008B800061B672C73088400063083130006031D8B
:1008C800672C7108832C861F792C73088400831386
:1008D8000008031D792C8E018F010730F40073087E
:1008E80084007408800010148D2C861B8D2C7308CE
:1008F8008400073083130006031D8D2C72088400C2
:100908000E088000840A0F088000730884008001A4
:1009180010100B108B150800103083160313860077
:100928008312031306140630A000A00B992C0000B4
:100938008312031306108230A100DD30A000A00B43
:10094800A32CA10BA32CA82C2030831603138600FC
:100958008312031386140630A000A00BB12C0000EC
:100968008312031386108230A100DD30A000A00B93
:10097800BB2CA10BBB2CC02C403083160313860064
:100988008312031306150630A000A00BC92C000023
:100998008312031306118230A100DD30A000A00BE2
:1009A800D32CA10BD32CD82C8030831603138600AC
:1009B8008312031386150630A000A00BE12C00005B
:1009C8008312031386118230A100DD30A000A00B32
:1009D800EB2CA10BEB2CF02C080083120313A601BF
:1009E800A11FFD2CA009A109A00A0319A10AA601AB
:1009F800A60AA31F082DA209A309A20A0319A30A7C
:100A08000130A4002408A606A701A8012008210493
:100A180003193F2DA501A50AA11B1E2D01300310A6
:100A2800A00DA10DFF3E031D132D0130A4002408C5
:100A3800A507102D01300310A70DA80DFF3E031DBB
:100A48001F2D21082302031D2B2D20082202031C21
:100A5800342D2008A2022108031CA303A302271493
:100A680001300310A10CA00CFF3E031D352D0130F1
:100A7800A502031D1E2D26080319472DA709A8093D
:100A8800A70A0319A80A2808A1002708A000080037
:100A980083120313A1008C2D201C562D83120313DF
:100AA800071408008312031307100800201C602D88
:100AB8008312031387140800831203138710080096
:100AC800201C6A2D831203130715080083120313D1
:100AD80007110800201C742D8312031387150800C2
:100AE8008312031387110800201C7E2D8312031321
:100AF800071608008312031307120800201C882D0C
:100B08008312031387160800831203138712080041
:100B18002108043A0319502D013A03195A2D033AB2
:100B28000319642D013A03196E2D0F3A0319822D0A
:100B3800013A0319782D033A0319A32DA32D0800B0
:100B48008A1131278A118A1190248A11AC308312B4
:100B58000313E8006808B000B830E9006908B1007C
:100B6800C430EA006A08B200D030EB006B08B3006A
:100B7800A0308A1126208A11AC3083120313E800B2
:100B88006808BB00B830E9006908BC00C430EA0056
:100B98006A08BD00A0308A118C228A11AC308312F9
:100BA8000313E8006808A000B830E9006908A1004C
:100BB800C430EA006A08A200A0308A11AC238A1166
:100BC8008A11D3268A11A72D83120313A400043097
:100BD800A2002208A500083025020318162E0130AD
:100BE800A2002508FC3E013EFB2D0310A20DFF3E8E
:100BF800031DF92D220824050319042E0130052EA2
:100C08000030A3002308A00025088A114C258A116A
:100C1800013083120313A2002208A5070830250219
:100C2800031CF32DA001A00A08308A114C258A1153
:100C3800063083120313A200A20B202E0000831299
:100C48000313A00108308A114C25080083120313EE
:100C5800A501A601200821040319632EA701A70AEC
:100C6800A11B422E01300310A00DA10DFF3E031D54
:100C7800372E0130A4002408A707342E01300310B2
:100C8800A50DA60DFF3E031D432E21082302031DBB
:100C98004F2E20082202031C582E2008A2022108E9
:100CA800031CA303A302251401300310A10CA00CFC
:100CB800FF3E031D592E0130A702031D422E2608B0
:100CC800A1002508A000080083120313A800260825
:100CD8000319712EA001A00A742E83120313A00118
:100CE80009308A114C258A1183120313A0010A3096
:100CF8008A114C258A110430831603135806031DE4
:100D0800992E831203132808A70004300310A70C98
:100D1800FF3E031D8A2E27088A11E8258A118312AF
:100D2800031328088A11E8250800831203132808EA
:100D38008A11FB27080083120313280829040319C2
:100D4800CE2EAD01AD0AA91BB52E01300310A80D9A
:100D5800A90DFF3E031DAA2E0130AC002C08AD07DB
:100D6800A72E29082B02031DBB2E28082A02031CC4
:100D7800C32E2808AA022908031CAB03AB020130C2
:100D88000310A90CA80CFF3E031DC42E0130AD02B0
:100D9800031DB52E2B08A9002A08A80008008316F1
:100DA800031386010D3083120313A100FB30A0004A
:100DB800A00BDC2EA10BDC2EE12E8312031386017F
:100DC8000D30A100FB30A000A00BE82EA10BE82EEF
:100DD800ED2E0800831203136C15A6016C08083861
:100DE8008A1168268A11213083120313A900A90BDE
:040DF800FB2E0800C6
:100E0000FF1B0A2F83137F1883170008840A031916
:100E1000FF0A080007308A000408840A82070034A9
:100E2000013400340A34003464340034E8340334C8
:100E30001034273400344034143454344434693486
:100E40007334743461346E346334693461347334AC
:100E50003A340034253475342034203420340034BE
:100E600000347530831603138F00F0308600831230
:100E700003138601831603178901831203138E015E
:100E80008F011030900008308B00F0308316031370
:100E900096008B17103083120313AF002F08A900A0
:100EA0000230B0003008AA0000308A1106218A11F1
:100EB0008A11E6278A118A11EE260800831203138D
:100EC000A401831603138712071207108710071156
:100ED000871183120313A4010B30240203187F2F00
:100EE000A00124088A114C258A11013083120313B2
:100EF000A2002208A4070B302402031C702F043028
:100F000008000B1C972FAC30F6007608F000B830C4
:100F1000F7007708F100C430F8007808F2006D306F
:100F2000F9007908F300A0308A111E248A117D0887
:100F300083120313FF007C088A007B0884007A0E6A
:100F40008300FE0E7E0E0900831203132A08FF00A1
:100F5000290884008A1100278A11003A0319080021
:100F600083120313A601A60A2A08FF002908840099
:100F70008A1100278A118A1168268A11013083128A
:100F80000313A9070318AA0AA42F83120313AB00A3
:100F90006F082902031CD12F6F08FF3EAA002A0800
:100FA000A9006E082B02031CDA2F6E08FF3EAA0070
:100FB0002A08AB00A60129080B3E84008A110A27E3
:100FC0008A112B0780388A116826080083120313C0
:100FD000A60101308A1168268A1106308312031394
:100FE000AA003030A900A90BF32FAA0BF32F0000A1
:080FF00008001034023408006F
:101FF00064008001840A0406031900340406F92FE2
:04400E00F5EFFFFECD
:00000001FF
