:040000008A11112828
:10000800FE00030EFA000408FB000A08FC00831235
:1000180003137F08FD008A11CE298A111328831340
:100028003B3084004B308A11262283018A11AB2988
:100038003A3083120313A0000030A1002908A3005E
:100048002808A2008A116D218A118312031321083E
:10005800B3002008B2003A30A0000030A1002B08FD
:10006800A3002A08A2008A116D218A1183120313A2
:100078002108B5002008B4003A30A0000030A100E3
:100088002D08A3002C08A2008A116D218A11831261
:1000980003132108B7002008B6003A30A00000304A
:1000A800A1002F08A3002E08A2008A116D218A1131
:1000B800831203132108B9002008B8003308B100DF
:1000C800300884003108831380003208B100300AF8
:1000D8008400310880003508B1003008023E8400F1
:1000E800310880003408B1003008033E840031082C
:1000F80080003708B1003008043E840031088000D1
:100108003608B1003008053E8400310880003908FF
:10011800B1003008063E8400310880003808B1007C
:100128003008073E8400310880000800F5008B1174
:1001380083120313061EAA28730884008313000879
:10014800031DAA288E018F010430EE28061AB5284F
:1001580073088400043083130006031DB52875084E
:10016800FF28861EC1287308840083130008031D16
:10017800C1288E018F010530EE28861ACC28730815
:100188008400053083130006031DCC287008FF285F
:10019800061FD8287308840083130008031DD82875
:1001A8008E018F010630EE28061BE32873088400B1
:1001B800063083130006031DE3287108FF28861FF5
:1001C800F5287308840083130008031DF5288E01A1
:1001D8008F010730F400730884007408800010143D
:1001E8000929861B09297308840007308313000630
:1001F800031D0929720884000E088000840A0F086C
:10020800800073088400800110100B108B15080003
:100218001030831603138600831203130614063066
:10022800A000A00B152900008312031306108230CA
:10023800A100DD30A000A00B1F29A10B1F29242934
:1002480020308316031386008312031386140630A6
:10025800A000A00B2D290000831203138610823002
:10026800A100DD30A000A00B3729A10B37293C29BC
:1002780040308316031386008312031306150630D5
:10028800A000A00B45290000831203130611823039
:10029800A100DD30A000A00B4F29A10B4F29542944
:1002A80080308316031386008312031386150630E5
:1002B800A000A00B5D290000831203138611823071
:1002C800A100DD30A000A00B6729A10B67296C29CC
:1002D800080083120313A501A601200821040319AD
:1002E800A629A701A70AA11B852901300310A00D83
:1002F800A10DFF3E031D7A290130A4002408A70799
:10030800772901300310A50DA60DFF3E031D862990
:1003180021082302031D922920082202031C9B297D
:100328002008A2022108031CA303A30225140130FC
:100338000310A10CA00CFF3E031D9C290130A7024D
:10034800031D85292608A1002508A00008008A1198
:100358000C228A118A110C218A1183120313430873
:10036800A9004208A8004508AB004408AA004708AD
:10037800AD004608AC004908AF004808AE003B3065
:10038800BA003A08B0008A111C208A118A11F1219A
:100398008A11AE290B1CE4294430F6007608F000D7
:1003A8004630F7007708F1004830F8007808F20086
:1003B8004A30F9007908F30042308A119A208A11EC
:1003C8007D0883120313FF007C088A007B088400E1
:1003D8007A0E8300FE0E7E0E090083160313860133
:1003E8000D3083120313A100FB30A000A00BFA29E3
:1003F800A10BFA29FF298312031386010D30A100EE
:10040800FB30A000A00B062AA10B062A0B2A080025
:100418007530831603138F00F030860083120313A0
:100428008601831603178901831203138E018F0136
:100438001030900008308B00F030831603139600BC
:100448008B17080064008001840A0406031900342D
:040458000406272A45
:04400E00F5EFFFFECD
:00000001FF
