:040000008A11112828
:10000800FE00030EF0000408F1000A08F200831253
:1000180003137F08F3008A11602C8A111328F60154
:10002800F701F801F901EF018313A0308400C6300D
:100038008A152C278A118A1526278A11E9008A151C
:1000480027278A11EA008A1528278A11EB008A15C2
:1000580029278A11EC008A152A278A11ED008A15AA
:100068002B27EE0083018A11E42C3A308312031304
:10007800A0000030A1003E08A3003D08A2008A119C
:100088002D278A11831203132108CB002008CA00E8
:100098003A30A0000030A1004008A3003F08A200A9
:1000A8008A112D278A11831203132108CD002008F5
:1000B800CC003A30A0000030A1004208A30041085B
:1000C800A2008A112D278A11831203132108CF0059
:1000D8002008CE003A30A0000030A1004408A30058
:1000E8004308A2008A112D278A11831203132108BD
:1000F800D1002008D0004A084B04031D85283A3057
:100108008F280130831203134B02913003194A02DE
:10011800031C93284030C9004908AC009D2833309F
:1001280083120313C9004908AC004B08AE004A0803
:10013800AD0045088400831300088A1115228A112E
:10014800831203134C084D04031DAC283A30B6281B
:100158000130831203134D02913003194C02031C22
:10016800BA284030C9004908AC00C428333083128B
:100178000313C9004908AC004D08AE004C08AD0097
:1001880046088400831300088A1115228A118312F5
:1001980003134E084F04031DD3283A30DD280130DD
:1001A800831203134F02913003194E02031CE128F6
:1001B8004030C9004908AC00EB28333083120313E0
:1001C800C9004908AC004F08AE004E08AD0047080A
:1001D8008400831300088A1115228A1183120313DD
:1001E80050085104031D03293A30C9004908AC00DE
:1001F80048088400831300088A111522080001307A
:10020800831203135102913003195002031C17295A
:100218004030C9004908AC0048088400831300082E
:100228008A1115220800333083120313C9004908C4
:10023800AC005108AE005008AD0048088400831394
:1002480000088A1115220800831203132E08B20031
:100258002F08B3003008B4003108B5000630031089
:10026800B20DB30DB40DB50DFF3E031D332935088E
:10027800A3003408A2003308A1003208A00000300F
:10028800B6001230B7007A30B8000030B9002E0836
:10029800BA002F08BB003008BC003108BD0006308A
:1002A8000310BA0DBB0DBC0DBD0DFF3E031D542937
:1002B800BA09BB09BC09BD09BA0A0319BB0A031963
:1002C800BC0A0319BD0A3A08B6073B0803183B0FD6
:1002D8006E296F29B7073C0803183C0F7429752944
:1002E800B8073D0803183D0AB9073908A7003808B8
:1002F800A6003708A5003608A4008A11D1238A1160
:10030800831203132108BF002008BE0001303F02FA
:10031800003003193E02031CF4292E08B2002F08EE
:10032800B3003008B4003108B50004300310B20D32
:10033800B30DB40DB50DFF3E031D9A293508A30072
:100348003408A2003308A1003208A0000030B6002B
:100358001230B7007A30B8000030B9002E08BA0061
:100368002F08BB003008BC003108BD000430031062
:10037800BA0DBB0DBC0DBD0DFF3E031DBB29BA094F
:10038800BB09BC09BD09BA0A0319BB0A0319BC0A8F
:100398000319BD0A3A08B6073B0803183B0FD529CD
:1003A800D629B7073C0803183C0FDB29DC29B80716
:1003B8003D0803183D0AB9073908A7003808A60000
:1003C8003708A5003608A4008A11D1238A118312A0
:1003D80003132108BF002008BE0083160313181555
:1003E800013083123F02003003193E02031808004F
:1003F800831603131811831203133E08831603137D
:10040800990018128312031398178316031387177A
:100418000713181383120313181683160313981659
:10042800080083120313BC002D30B1003108B80056
:100438000130AC07FF302C0784008A11A3268A11EB
:10044800B1003108BB003B080319F52A25303B06EB
:1004580003193A2A3B08B1003C0884003108831389
:1004680080000130B1003108BC071C2AB401742A8D
:100478003808840083130008B9000030BA0001303E
:10048800B1003108B80739083A04031D4F2A2C3047
:10049800B9008030BA003A08FF00390884008A1190
:1004A80099268A11003A03191C2A3A08FF003908CC
:1004B80084008A1199268A11B1003C088400310809
:1004C800831380000130B9070318BA0A0130B1005C
:1004D8003108BC074F2AC030B1003108B404872A5C
:1004E8000130AC07FF302C0784008A11A3268A113B
:1004F800BB00003A0319F52A733A03193C2A063A55
:1005080003196F2A1C2A3808840083130008B500D1
:10051800840A0008B6000230B1003108B807BB01F0
:10052800BB0A05303B060319B62A3B08B100310760
:10053800013E84008A11A3268A11B2008A11A326DB
:100548008A11B30033083602031DAC2A320835027B
:10055800031CB62A0130B1003108BB0705303B0641
:10056800031D992A3B08B1003108B700FF30B100DC
:100578003108B707370A03191C2A0A30A7000030C8
:10058800A8003708B1003107013E84008A11A3266C
:100598008A11A0008A11A3268A11A1003608A30097
:1005A8003508A2008A112D278A1183120313210806
:1005B800AA002008A9008A116B278A118312031345
:1005C8002708303EB2003208BB003B08B1003C08A7
:1005D80084003108831380000130B1003108BC0762
:1005E800BA2A3C088400831380010800831203138D
:1005F800AC002C088A15DD278A1183120313A90081
:10060800290883160313CA00831203132808A900B4
:100618002908EA002708A9002908E9000230AB00E8
:100628000430AA00BA30A900A90B182BAA0B182B62
:10063800AB0B182B00000430831603134A06031D66
:10064800632B03308A11ED268A110D3083120313B0
:10065800AA00FB30A900A90B2F2BAA0B2F2B342B98
:1006680003308A11ED268A114F3083120313A90033
:10067800A90B3C2B3F2B03308A11ED268A114F30F2
:1006880083120313A900A90B472B4A2B02308A11A6
:10069800ED268A114F3083120313A900A90B522BA0
:1006A800552B83120313A4012C308A119F278A111A
:1006B800213083120313A900A90B602BA42B083047
:1006C800831603134A06031DA42B83120313A401E4
:1006D80020308A119F278A110D3083120313AA0034
:1006E800FB30A900A90B762BAA0B762B7B2B831248
:1006F8000313A40120308A119F278A114F308312D7
:100708000313A900A90B862B892B83120313A401B9
:1007180020308A119F278A114F3083120313A900B2
:10072800A90B942B972B83120313A4013C308A1135
:100738009F278A11213083120313A900A90BA22B2A
:1007480083120313A40108308A119F278A112130CC
:1007580083120313A900A90BAF2B83120313A4015F
:1007680001308A119F278A11063083120313AA00C9
:100778003030A900A90BBE2BAA0BBE2B0000831298
:100788000313A40106308A119F278A11213083128E
:100798000313A900A90BCE2B080083120313A90188
:1007A800A31FE32BA009A109A209A309A00A031901
:1007B800A10A0319A20A0319A30AA901A90AA71FD2
:1007C800F42BA409A509A609A709A40A0319A50ACF
:1007D8000319A60A0319A70A0130F4007408A90628
:1007E8000030AD000030AC000030AB000030AA0093
:1007F80023082204210420040319492CA801A80A6B
:10080800A31B142C0130F4000310A00DA10DA20DA0
:10081800A30DF40B082C0130F4007408A807042C6D
:100828000130F4000310AA0DAB0DAC0DAD0DF40BA7
:10083800162C23082702031D2B2C22082602031D31
:100848002B2C21082502031D2B2C20082402031C15
:100858003C2C2008A4022108031C210FA502220811
:10086800031C220FA6022308031C230FA7022A1425
:1008780001300310A30CA20CA10CA00CFF3E031D19
:100888003D2C0130A802031D142C29080319572CEC
:10089800AA09AB09AC09AD09AA0A0319AB0A0319DD
:1008A800AC0A0319AD0A2D08A3002C08A2002B08D6
:1008B800A1002A08A00008000B1CD92C8B11061EC9
:1008C8006D2C76087704031D6D2C8E018F01043082
:1008D800BC2C061A7B2C043076067704031D7B2C6F
:1008E8000F08F9000E08F800F601F701D62C861E4D
:1008F800852C76087704031D852C8E018F01053021
:10090800BC2C861A972C053076067704031D972C85
:100918000F0883160313A100831203130E0883160E
:100928000313A000D22C061FA12C76087704031D00
:10093800A12C8E018F010630BC2C061BB32C06306F
:1009480076067704031DB32C0F0883160313A30040
:10095800831203130E0883160313A200D22C861FDA
:10096800C12C76087704031DC12C8E018F01073036
:10097800F6000030F7001014D72C861BD72C073050
:1009880076067704031DD72C0F0883160313A500DA
:10099800831203130E0883160313A400F601F7014C
:1009A8008312031310100B108B157308FF007208C5
:1009B8008A0071088400700E8300FE0E7E0E090006
:1009C8008A11D2278A11003083120313B100003034
:1009D800B0002530AF008030AE008A1128218A117E
:1009E8008A11E2258A11790883120313BE00780858
:1009F800BD0083160313210883120313C000831656
:100A08000313200883120313BF008316031323085C
:100A180083120313C20083160313220883120313DD
:100A2800C10083160313250883120313C400831619
:100A38000313240883120313C3006B3083160313B4
:100A4800C600460883120313C5006C3083160313CF
:100A5800C700470883120313C6006D3083160313BB
:100A6800C800480883120313C7006E3083160313A7
:100A7800C900490883120313C8008A1139208A1152
:100A8800AE3083160313C600460883120313BD0055
:100A9800B63083160313C700470883120313BE003A
:100AA800BE3083160313C800480883120313BF001F
:100AB800A6308A1164258A118A1561278A11F42CB7
:100AC80083120313E800A70100308A159B278A11B7
:100AD800203083120313A7008030A8008A15BC2792
:100AE8008A1183120313A7010C308A159B278A11D8
:100AF800831203136808A7000030A8008A15BC27D2
:100B08008A1183120313A701A70A00308A159B27AD
:100B18008A11831203133D08A7000030A8008A1524
:100B2800BC278A1183120313A701A70A06308A1566
:100B38009B278A11831203133E08A7000030A800E0
:100B48008A15BC278A1183120313A701A70A0C3040
:100B58008A159B278A11831203133F08A7000030C8
:100B6800A8008A15BC278A110F3083120313C0000E
:100B78004008AC006808C1004108AD003D08C2004B
:100B88004208AE003E08C3004308AF003F08C40057
:100B98004408B00045308A1115228A1145308A155B
:100BA8007A278A11823083120313C100DD30C00016
:100BB800C00BDC2DC10BDC2DE12D08001030831695
:100BC800031386008312031306140630F400F40B93
:100BD800EB2D00008312031306108230F500DD3080
:100BE800F400F40BF52DF50BF52DFA2D20308316B6
:100BF800031386008312031386140630F400F40BE3
:100C0800032E00008312031386108230F500DD30B6
:100C1800F400F40B0D2EF50B0D2E122E403083161A
:100C2800031386008312031306150630F400F40B31
:100C38001B2E00008312031306118230F500DD30ED
:100C4800F400F40B252EF50B252E2A2E8030831662
:100C5800031386008312031386150630F400F40B81
:100C6800332E00008312031386118230F500DD3025
:100C7800F400F40B3D2EF50B3D2E422E0800F50036
:100C8800812E741C4B2E8312031307140800831241
:100C9800031307100800741C552E831203138714BE
:100CA80008008312031387100800741C5F2E831238
:100CB8000313071508008312031307110800741C97
:100CC800692E8312031387150800831203138711F3
:100CD8000800741C732E831203130716080083126E
:100CE800031307120800741C7D2E83120313871642
:100CF800080083120313871208007508043A0319C1
:100D0800452E013A03194F2E033A0319592E013A79
:100D18000319632E0F3A0319772E013A03196D2E22
:100D2800033A0319982E982E0800FF1BA32E83134D
:100D38007F1883170008840A0319FF0A0800063081
:100D48008A000408840A82070034013400340A3413
:100D5800003464340034E834033410342734003465
:100D6800403414345434253473342C34203425342A
:100D780073342C342034253473342C342034253403
:100D880073342E3400340034443469347334743486
:100D980061346E3463346934613473343A34003402
:100DA80028346E3475346C346C342934003425346A
:100DB8007534203420342034003400344E344F3419
:100DC80050344534003400344F34553454340034EE
:100DD800003483120313A2000430A0002008A300EB
:100DE8000830230203181B2F0130A0002308FC3E03
:100DF800013E002F0310A00DFF3E031DFE2E20080C
:100E080022050319092F01300A2F0030A1002108FB
:100E1800F40023088A1143268A1101308312031330
:100E2800A0002008A30708302302031CF82EF401B1
:100E3800F40A08308A1143268A11063083120313F4
:100E4800A000A00B252F0000F40108308A114326CA
:100E5800080083120313A501A60120082104031921
:100E6800662FA401A40AA11B452F01300310A00D71
:100E7800A10DFF3E031D3A2F0130F4007408A407AA
:100E8800372F01300310A50DA60DFF3E031D462F79
:100E980021082302031D522F20082202031C5B2F66
:100EA8002008A2022108031CA303A3022514013071
:100EB8000310A10CA00CFF3E031D5C2F0130A402FF
:100EC800031D452F2608A1002508A000080083124D
:100ED80003132708280403199A2FAB01AB0AA81B90
:100EE800812F01300310A70DA80DFF3E031D762F9B
:100EF8000130F5007508AB07732F28082A02031D77
:100F0800872F27082902031C8F2F2708A9022808E2
:100F1800031CAA03AA0201300310A80CA70CFF3E69
:100F2800031D902F0130AB02031D812F2A08A80052
:100F38002908A700080083120313A6002408031930
:100F4800A82FF401F40AA92FF40109308A114326C5
:100F58008A11F4010A308A1143268A110430831653
:100F680003134A06031DCC2F831203132608A5007A
:100F780004300310A50CFF3E031DBD2F25088A1160
:100F8800ED268A118312031326088A11ED2608001C
:100F98008312031326088A11FF2708007530831669
:100FA80003138F00F0308600831203138601831623
:100FB80003178901831203138E018F0110309000EB
:100FC80008308B00F0308316031396008B1710300F
:100FD80083120313AD002D08A7000230AE002E08BF
:100FE800A80000308A11FA228A118A154E278A1120
:080FF8008A153E2708000800DD
:101E4C0010340234A634AE34B634BE34640080018F
:101E5C00840A04060319003404062D2FF40083169B
:101E6C000313981C352F7408831203139900080070
:101E7C00831203136F15A4016F0808388A119F276A
:101E8C008A15213083120313A700A70B4B2F0800D0
:101E9C0083120313A40101308A119F278A1506307F
:101EAC0083120313A8003030A700A70B5B2FA80BDD
:101EBC005B2F000008008316031386010D30F5001C
:101ECC00FB30F400F40B682FF50B682F6D2F831289
:101EDC00031386010D30F500FB30F400F40B742F66
:101EEC00F50B742F792F080083120313A000A101A6
:101EFC00A20121082007F50075088400831300084F
:101F0C000319080021082007F500750884008313C5
:101F1C0000088A1534278A15013083120313A10790
:101F2C000318A20A0030A2077F2F83120313A90003
:101F3C006A082702031CA72F6A08FF3EA80028087E
:101F4C00A70069082902031CB02F6908FF3EA800EE
:101F5C002808A900A40127080B3E84008A11A32697
:101F6C008A15290780388A119F27080083120313CA
:101F7C002808FF00270884008A1199268A15003A40
:101F8C000319080083120313A401A40A2808FF00F4
:101F9C00270884008A1199268A158A119F278A1589
:101FAC00013083120313A7070318A80ABC2F83124E
:101FBC000313A2018316031387120712071087104D
:101FCC000711871183120313A2010B30220203188D
:101FDC00FE2FF40122088A1143268A150130831240
:101FEC000313A0002008A2070B302202031CEF2FC2
:041FFC0004300800A5
:04400E00F5EFFFFECD
:00000001FF
