:040000008A11112828
:10000800FE00030EFA000408FB000A08FC00831235
:1000180003137F08FD008A11152D8A1113288313F5
:100028002030840045308A118D258A11A030840043
:10003800C0308A118D2583018A11D12C83120313B4
:100048005408D8005508D9005608DA005708DB00CC
:1000580006300310D80DD90DDA0DDB0DFF3E031D58
:100068002D285B08C8005A08C7005908C600580858
:10007800C5000030DC001230DD007A30DE000030D0
:10008800DF005408E0005508E1005608E200570870
:10009800E30006300310E00DE10DE20DE30DFF3E35
:1000A800031D4E28E009E109E209E309E00A031902
:1000B800E10A0319E20A0319E30A6008DC07610888
:1000C8000318610F68286928DD0762080318620FA2
:1000D8006E286F28DE0763080318630ADF075F08C6
:1000E800CC005E08CB005D08CA005C08C9008A1114
:1000F80092228A11831203134608E5004508E4009A
:1001080001306502003003196402031CEE2854080C
:10011800D8005508D9005608DA005708DB00043023
:100128000310D80DD90DDA0DDB0DFF3E031D942801
:100138005B08C8005A08C7005908C6005808C50017
:100148000030DC001230DD007A30DE000030DF00E5
:100158005408E0005508E1005608E2005708E3009B
:1001680004300310E00DE10DE20DE30DFF3E031D29
:10017800B528E009E109E209E309E00A0319E10AFF
:100188000319E20A0319E30A6008DC076108031887
:10019800610FCF28D028DD0762080318620FD52821
:1001A800D628DE0763080318630ADF075F08CC0058
:1001B8005E08CB005D08CA005C08C9008A1192225B
:1001C8008A11831203134608E5004508E4008316E4
:1001D80003131815013083126502003003196402F5
:1001E80003180800831603131811831203136408F5
:1001F8008316031399001812831203139817831692
:10020800031387170713181383120313181683167B
:1002180003139816080083120313DC003A30C50054
:100228000030C6005C08840083130008C700840AF5
:100238000008C8008A1176248A11831203135C0807
:100248008400450883138000840A460880003A30F9
:10025800C5000030C600550884000008C700840A9D
:100268000008C8008A1176248A11831203135508DE
:100278008400450883138000840A460880003A30C9
:10028800C5000030C600560884000008C700840A6C
:100298000008C8008A1176248A11831203135608AD
:1002A8008400450883138000840A460880003A3099
:1002B800C5000030C600570884000008C700840A3B
:1002C8000008C8008A1176248A118312031357087C
:1002D8008400450883138000840A460880005C086F
:1002E8008A1121238A118312031355088A112123A5
:1002F8008A118312031356088A1121238A11831243
:10030800031357088A1121238A11831203135C08E7
:100318000A3E840083130008D900840A0008DA0022
:100328005A08DB00580884005B0880005C080A3E15
:1003380084000008D900580A84005908800055082C
:100348000A3E84000008D900840A0008DA005A0826
:10035800DB005808023E84005B08800055080A3E0E
:1003680084000008D9005808033E8400590880001A
:1003780056080A3E84000008D900840A0008DA00FA
:100388005A08DB005808043E84005B0880005608C1
:100398000A3E84000008D9005808053E8400590820
:1003A800800057080A3E84000008D900840A000823
:1003B800DA005A08DB005808063E84005B08800013
:1003C80057080A3E84000008D9005808073E8400F0
:1003D800590880000800F5008B1183120313061ECC
:1003E800052A7308840083130008031D052A831651
:1003F8000313061E052A831203138E018F0104308E
:100408006D2A8312061A152A730884000430831390
:100418000006031D152A83160313061E152A7508E0
:10042800832A8312861E282A7308840083130008EF
:10043800031D282A83160313861E282A83120313F2
:100448008E018F0105306D2A8312861A382A7308A7
:100458008400053083130006031D382A831603130E
:10046800861E382A7008832A8312061F4B2A7308AF
:10047800840083130008031D4B2A83160313061FE9
:100488004B2A831203138E018F0106306D2A8312C3
:10049800061B5B2A73088400063083130006031DBD
:1004A8005B2A83160313061F5B2A7108832A8312AB
:1004B800861F742A7308840083130008031D742A96
:1004C80083160313861F742A831203138E018F0168
:1004D8000730F400730884007408800010148F2A11
:1004E8008312861B8F2A7308840007308313000643
:1004F800031D8F2A83160313861F8F2A7208840010
:10050800831203130E088000840A0F088000730802
:100518008400800110100B108B1508008312031340
:10052800CF01C81FA42AC509C609C709C809C50A31
:100538000319C60A0319C70A0319C80ACF01CF0A43
:10054800CC1FB52AC909CA09CB09CC09C90A03199C
:10055800CA0A0319CB0A0319CC0A0130CD004D0889
:10056800CF060030D3000030D2000030D100003078
:10057800D000480847044604450403190A2BCE0155
:10058800CE0AC81BD52A0130CD000310C50DC60DF3
:10059800C70DC80DCD0BC92A0130CD004D08CE07B7
:1005A800C52A0130CD000310D00DD10DD20DD30DC9
:1005B800CD0BD72A48084C02031DEC2A47084B02EA
:1005C800031DEC2A46084A02031DEC2A4508490285
:1005D800031CFD2A4508C9024608031C460FCA0227
:1005E8004708031C470FCB024808031C480FCC02DE
:1005F800501401300310C80CC70CC60CC50CFF3EC4
:10060800031DFE2A0130CE02031DD52A4F08031907
:10061800182BD009D109D209D309D00A0319D10A54
:100628000319D20A0319D30A5308C8005208C7008D
:100638005108C6005008C500080083120313D400EF
:10064800D201D301053053020318832B5308CE007F
:100658004E075407CF004F08840083130008D000CA
:10066800840A0008D1005108803AFF0081307F02D7
:10067800031D402B9130500203184F2B8312031394
:100688005308CE004E075407CF004F088400840A51
:100698008313801F5D2B831203135308CE004E076C
:1006A8005407CF004F08840083138001840A800117
:1006B8007B2B5308CE004E075407CF004F08840009
:1006C8000008D000840A0008D10054080A3E8400BB
:1006D80050088007840F00080318000AFF0051081B
:1006E8007F07800084030130CE004E08D207013016
:1006F800CE004E08D30705305302031C2A2B52089C
:10070800CE00CF014E08C5004F08C60054080A3E67
:10071800840083130008C700840A0008C8008A11EF
:1007280076248312031354080A3E84004508831371
:100738008000840A46088000080083120313CE0054
:10074800CF0104304F02031808004F08C8004807BB
:100758004E07C9004908840083130008CA00840AA8
:100768000008CB004F08CC004C07023E4E07CD00D6
:100778004D0884004A088000840A4B0880004F080E
:10078800C80048074507C900490884000008CA008E
:10079800840A0008CB004F08CC004C07023E4507EE
:1007A800CD004D0884004A088000840A4B08800068
:1007B8004F08C80048074607C900490884000008D0
:1007C800CA00840A0008CB004F08CC004C07023E40
:1007D8004607CD004D0884004A088000840A4B086B
:1007E80080004F08C80048074707C9004908840027
:1007F8000008CA00840A0008CB004F08CC004C0748
:10080800023E4707CD004D0884004A088000840A4C
:100818004B0880000130C8004808CF07A52B8B156E
:100828001030831603138600831203130614063050
:10083800C500C50B1D2C000083120313061082305F
:10084800C600DD30C500C50B272CC60B272C2C2C69
:100858002030831603138600831203138614063090
:10086800C500C50B352C0000831203138610823097
:10087800C600DD30C500C50B3F2CC60B3F2C442CF1
:1008880040308316031386008312031306150630BF
:10089800C500C50B4D2C00008312031306118230CE
:1008A800C600DD30C500C50B572CC60B572C5C2C79
:1008B80080308316031386008312031386150630CF
:1008C800C500C50B652C0000831203138611823006
:1008D800C600DD30C500C50B6F2CC60B6F2C742C01
:1008E8008B11080083120313CB01C61F822CC50984
:1008F800C609C50A0319C60ACB01CB0AC81F8D2C25
:10090800C709C809C70A0319C80A0130C900490834
:10091800CB06CC01CD01450846040319C42CCA01F5
:10092800CA0AC61BA32C01300310C50DC60DFF3E15
:10093800031D982C0130C9004908CA07952C0130BD
:100948000310CC0DCD0DFF3E031DA42C4608480214
:10095800031DB02C45084702031CB92C4508C702E3
:100968004608031CC803C8024C1401300310C60C07
:10097800C50CFF3E031DBA2C0130CA02031DA32C6F
:100988004B080319CC2CCC09CD09CC0A0319CD0A84
:100998004D08C6004C08C50008008A1159258A115F
:1009A800003083120313D7000030D6002530D5005D
:1009B8008030D4008A1122208A118A1113248A11C6
:1009C80044308A1171258A112C3083120313E600F2
:1009D8006608D5003830E7006708D600B430E8006C
:1009E8006808D700A030E9006908D80020308A11CB
:1009F8000F218A112C3083120313E6006608C50004
:100A08003830E7006708C600B430E8006808C70057
:100A180020308A11A1238A11A0308A1138258A1121
:100A2800E12C0B1C2B2D2C30F6007608F00038300A
:100A3800F7007708F100B430F8007808F200443085
:100A4800F9007908F30020308A11EF218A117D0816
:100A580083120313FF007C088A007B0884007A0E47
:100A68008300FE0E7E0E090083120313C900C7011E
:100A7800C80147084907C6004608840083130008D0
:100A88000319080047084907C6004608840083136D
:100A980000088A1181258A11013083120313C707C0
:100AA8000318C80A0030C8073D2D75308316031394
:100AB8008F008601831203138601831603178901A9
:100AC800831203138E018F011030900008308B00C1
:100AD800F030831603139600080083120313C6012F
:100AE800831603138601033083120313C500C50B55
:100AF8007B2D831203138601080083120313C5009C
:100B080083160313981C842D831203134508990038
:100B1800080064008001840A0406031900340406EE
:020B28008E2D10
:04400E00F5EFFFFECD
:00000001FF
