:040000008A11112828
:10000800FE00030EF8000408F9000A08FA0083123B
:1000180003137F08FB008A119C288A111328A40166
:10002800A50183018A11EB28831203132108803A62
:10003800FF0081307F02031D23289130200203181E
:100048000800831203132108803AFF0080307F02E2
:10005800031D302801302002031C080083120313FB
:1000680005142108803AFF0081307F02031D3E28D5
:100078002D30200203180800831203138514210869
:10008800803AFF0080307F02031D4C28C9302002CF
:10009800031808008312031305152108803AFF008E
:1000A80080307F02031D5A2865302002031808009B
:1000B8008312031385150800F501F6017008710411
:1000C80003199728F701F70AF11B76280130031066
:1000D800F00DF10DFF3E031D6B280130F40074088C
:1000E800F707682801300310F50DF60DFF3E031DD4
:1000F800772871087302031D832870087202031C95
:100108008C287008F2027108031CF303F3027514BB
:1001180001300310F10CF00CFF3E031D8D28013057
:10012800F702031D76287608F1007508F00008002C
:100138000B1CB9288B11061EA5288E018F011014DF
:10014800B72810103A30F0000030F1000F08F30023
:100158000E08F2008A1160208A11710883120313B5
:10016800A5007008A4000B108B157B08FF007A0807
:100178008A0079088400780E8300FE0E7E0E09003E
:100188007530831603138F00F03085008312031334
:100198008501831603178801F03083160313860040
:1001A8008312031386018316031789011030831203
:1001B8000313900008308B00F03083160313960069
:1001C80001308C00831203138C018B1708008A11ED
:1001D800C4208A118A1105218A119C3083120313C5
:1001E800A300D730A200A20BF728A30BF72883128D
:1001F80003132508A1002408A0008A1118208A11D9
:10020800EE288312031306140630A000A00B0A2957
:0A0218000000831203130610080013
:04400E00F5EFFFFECD
:00000001FF
