:040000008A11112828
:10000800FE00030EF8000408F9000A08FA0083123B
:1000180003137F08FB008A11DD2B8A111328C701FF
:10002800C801C9018A1199248A11CA008A119A241F
:10003800CB0083018A110F2A83120313AE002E0806
:100048008A1105248A1183120313AB002B08CC00F4
:100058002A08AB002B08CB002908AB002B08CA00E4
:100068000230AD000430AC00BA30AB00AB0B3A281C
:10007800AC0B3A28AD0B3A28000004308312031366
:100088004C06031D852803308A115F228A110D3022
:1000980083120313AC00FB30AB00AB0B5128AC0B45
:1000A8005128562803308A115F228A114F30831253
:1000B8000313AB00AB0B5E28612803308A115F2263
:1000C8008A114F3083120313AB00AB0B69286C28DD
:1000D80002308A115F228A114F3083120313AB005A
:1000E800AB0B7428772883120313A6012C308A11CE
:1000F8001B238A11213083120313AB00AB0B822818
:10010800C4280830831203134C06031DC428A60113
:1001180020308A111B238A110D3083120313AC007F
:10012800FB30AB00AB0B9628AC0B96289B288312B0
:100138000313A60120308A111B238A114F30831222
:100148000313AB00AB0BA628A92883120313A6013F
:1001580020308A111B238A114F3083120313AB00FE
:10016800AB0BB428B72883120313A6013C308A11BD
:100178001B238A11213083120313AB00AB0BC22857
:1001880083120313A60108308A111B238A11213018
:1001980083120313AB00AB0BCF2883120313A60102
:1001A80001308A111B238A11063083120313AC0015
:1001B8003030AB00AB0BDE28AC0BDE28000083121E
:1001C8000313A60106308A111B238A1121308312DA
:1001D8000313AB00AB0BEE28080083120313B9001E
:1001E8002F30B1003108B4000130AE07FF302E07C0
:1001F80084008A118E238A11B1003108BA003A08A6
:100208000319B22925303A06031916293A08B1000C
:10021800390884003108831380000130B1003108A7
:10022800B907F828B5010130AE07FF302E07840062
:100238008A118E238A11BA00003A0319B229643A46
:1002480003192A290D3A03192A29F82834088400A1
:1002580083130008B700840A0008B8000230B10010
:100268003108B407B81F41290330B1003108B5047B
:10027800B709B809B70A0319B80ABA01BA0A0530A2
:100288003A06031964293A08B1003107013E84008F
:100298008A118E238A11B2008A118E238A11B30023
:1002A80033083802031D5A2932083702031C64290F
:1002B8000130B1003108BA0705303A06031D472955
:1002C80035080339031973292D30B1003908840022
:1002D8003108831380000130B1003108B9073A08AA
:1002E800B1003108B600FF30B1003108B607360A50
:1002F8000319F8280A30A8000030A9003608B10010
:100308003107013E84008A118E238A11A0008A11C8
:100318008E238A11A1003808A3003708A2008A1189
:10032800A1228A11831203132108AB002008AA0016
:100338008A1150238A11831203132808303EB20011
:100348003208BA003A08B10039088400310883132A
:1003580080000130B1003108B907772939088400D5
:1003680083138001080083120313A100F729201CBE
:10037800C1298312031307160800831203130712F7
:100388000800201CCB298312031387160800831248
:10039800031387120800201CD5298312031307179B
:1003A80008008312031307130800201CDF29831297
:1003B8000313871708008312031387130800201CF0
:1003C800E929831203138715080083120313871181
:1003D8000800201CF3298312031307150800831251
:1003E8000313071108002108043A0319BB29013A2D
:1003F8000319C529033A0319CF29013A0319D92941
:100408000F3A0319ED29013A0319E329033A0319AD
:100418000E2A0E2A08008A11B1238A11103083127D
:100428000313BB003B08A9000230BC003C08AA002B
:1004380000308A1120208A118A116A248A118A11AF
:100448007D248A1183120313A90100308A114924DB
:100458008A110F3083120313A9008030AA008A1171
:1004680028248A118A118D248A119C30831203133F
:10047800BC00D730BB00BB0B3F2ABC0B3F2A831202
:100488000313A901A90A00308A1149248A111B30D3
:1004980083120313BB003B08AE004808B0004708AE
:1004A800AF003D308A11F1208A113D3083120313C9
:1004B800A9000030322A83120313A4000430A200DA
:1004C8002208A5000830250203188D2A0130A20051
:1004D8002508FC3E013E722A0310A20DFF3E031DB3
:1004E800702A2208240503197B2A01307C2A00304F
:1004F800A3002308A00025088A11B7218A1101301A
:1005080083120313A2002208A50708302502031C42
:100518006A2AA001A00A08308A11B7218A11063078
:1005280083120313A200A20B972A0000831203135D
:10053800A00108308A11B721080083120313A5010E
:10054800A601200821040319DA2AA701A70AA11B7A
:10055800B92A01300310A00DA10DFF3E031DAE2ADC
:100568000130A4002408A707AB2A01300310A50D09
:10057800A60DFF3E031DBA2A21082302031DC62A21
:1005880020082202031CCF2A2008A2022108031CEB
:10059800A303A302251401300310A10CA00CFF3EF5
:1005A800031DD02A0130A702031DB92A2608A1007D
:1005B8002508A0000800F501F60170087104031968
:1005C800162BF701F70AF11BF52A01300310F00D7D
:1005D800F10DFF3E031DEA2A0130F4007408F70705
:1005E800E72A01300310F50DF60DFF3E031DF62A2C
:1005F80071087302031D022B70087202031C0B2B77
:100608007008F2027108031CF303F3027514013039
:100618000310F10CF00CFF3E031D0C2B0130F70208
:10062800031DF52A7608F1007508F000080083120A
:100638000313A80026080319242BA001A00A272BBE
:1006480083120313A00109308A11B7218A1183127A
:100658000313A0010A308A11B7218A1104308312CA
:1006680003134C06031D4A2B2808A7000430031067
:10067800A70CFF3E031D3B2B27088A115F228A1116
:100688008312031328088A115F22080083120313B8
:1006980028088A119B2408008312031328082904B8
:1006A80003197F2BAD01AD0AA91B662B013003107E
:1006B800A80DA90DFF3E031D5B2B0130AC002C08D3
:1006C800AD07582B29082B02031D6C2B28082A027A
:1006D800031C742B2808AA022908031CAB03AB02CD
:1006E80001300310A90CA80CFF3E031D752B013027
:1006F800AD02031D662B2B08A9002A08A8000800D4
:10070800FF1B8E2B83137F1883170008840A031995
:10071800FF0A080003308A000408840A82070034AC
:10072800013400340A34003464340034E8340334C7
:100738001034273400344034143454344434693485
:100748007334743461346E346334693461343A34E4
:100758002034003425346434003475308316031390
:100768008F00F03085008312031385018316031769
:100778008801F03083160313860083120313860161
:100788008316031789010330831603138700831226
:10079800031387011030900008308B00F030831667
:1007A8000313960001308C00831203138C018B17FE
:1007B80008000B1CFA2B8B11061EE62B8E018F01ED
:1007C8001014F82B10103A30F0000030F1000F0828
:1007D800F3000E08F2008A11DF228A1171088312D1
:1007E8000313C8007008C7000B108B157B08FF00A7
:1007F8007A088A0079088400780E8300FE0E7E0E3F
:10080800090083120313A401831603130711871128
:10081800071287120713871383120313A4010B30DF
:1008280024020318262CA00124088A11B7218A1152
:10083800013083120313A2002208A4070B302402FC
:10084800031C172C04300800831203132A08FF0026
:10085800290884008A1184238A11003A03190800A0
:1008680083120313A601A60A2A08FF002908840098
:100878008A1184238A118A111B238A110130831259
:100888000313A9070318AA0A282C83120313AB0021
:100898004B082902031C552C4B08FF3EAA002A08C6
:1008A800A9004A082B02031C5E2C4A08FF3EAA0036
:1008B8002A08AB00A60129080B3E84008A118E2362
:1008C8008A112B0780388A111B230800831203130F
:1008D800A60101308A111B238A11063083120313E3
:1008E800AA003030A900A90B772CAA0B772C00009E
:1008F8000800831203134915A601490808388A110C
:100908001B238A11213083120313A900A90B8A2CF7
:1009180008008312031306140630A000A00B922CC3
:100928000000831203130610080010340234080074
:04400E00F5EFFFFECD
:00000001FF
