:040000008A11112828
:10000800FE00030EF8000408F9000A08FA0083123B
:1000180003137F08FB008A11A3288A111328FC0107
:10002800FD0183018A1118288A11CB208A118312B5
:10003800031306140630A000A00B2028000083122A
:10004800031306109C30A100D730A000A00B2A286B
:10005800A10B2A287D08803AFF0081307F02031D0A
:10006800372891307C0203181B28831203130514C8
:100078007D08803AFF0081307F02031D45282D301E
:100088007C0203181B288312031385147D08803A09
:10009800FF0080307F02031D5328C9307C020318FB
:1000A8001B288312031305157D08803AFF00803052
:1000B8007F02031D612865307C0203181B28831208
:1000C800031385151B28F501F6017008710403193F
:1000D8009E28F701F70AF11B7D2801300310F00D67
:1000E800F10DFF3E031D72280130F4007408F70774
:1000F8006F2801300310F50DF60DFF3E031D7E2815
:1001080071087302031D8A2870087202031C932861
:100118007008F2027108031CF303F302751401302E
:100128000310F10CF00CFF3E031D94280130F70278
:10013800031D7D287608F1007508F00008000B1CE7
:10014800BE288B11061EAC288E018F011014BC2806
:1001580010103A30F0000030F1000F08F3000E08DC
:10016800F2008A1167208A117108FD007008FC00EE
:100178000B108B157B0883120313FF007A088A0083
:1001880079088400780E8300FE0E7E0E0900753013
:10019800831603138F00F030850083120313850143
:1001A800831603178801F030831603138600831221
:1001B8000313860183160317890110308312031372
:1001C800900008308B00F03083160313960001303E
:0C01D8008C00831203138C018B170800AD
:04400E00F5EFFFFECD
:00000001FF
